20201205090061420000000000022496400000001095011                              059538089    
20201205090061489700000000001935100000020675002                              051174050    
20201205090011019200000000044019000000001910014                              ""           
20201205090071082600000000028029900000018460021                              071444034    
20201205090014453999900000000651200000003600001                                           
20201205090061030200000000095910600000001430011                              059059018    
20201205090011098500000000080113000000001000013                              ""           
20201205090111599600000000095005500000000200015                                           
20201205090124051959300000000002400000000999901                                           
20201205090111960400000000078709000000000500014                              NAGM7511201A4
20201205090111489700000000001935600000020000002                              ""           
20201205090111026700000000048866400000002000016                              ""           
20201205090111434900000000077410900000001000015                              ""           
20201205090211016000000000046883100000010000001                              ""           
20201205090224051952900000000002500000005000001                                           
20201205090281085900000000066191700000002000001                              Evento Teleto
20201205090211489700000000001936100000020000002                              ""           
20201205090211057000000000017282100000000500011                              ""           
20201205090212427299900000097788800000010000001                                           
20201205090261420000000000022496900000000650011                              059537023    
20201205090211656400000000086490300000005000026                              ""           
20201205090211016000000000046883600000005000001                              ""           
20201205090311089000000000040858000000000195023                              ""           
20201205090311031300000000007281500000000200011                              ""           
20201205090325051925500000000002600000001000001                                           
20201205090371006400000000058679700000030090024                              SEFERINA SANC
20201205090311465000000000098673200000010000015                              ""           
20201205090411462900000000002205700000002240015                              ""           
20201205090411008500000000064199700000001000006                              ""           
20201205090411429100000000019603900000002000014                              ""           
20201205090411064100000000028440500000000060016                              ""           
20201205090411740300000000026963400000030000019                              ""           
20201205090411093800000000096139500000001000030                              ""           
20201205090461003100000000000885200000005195021                              069100014    
20201205090414085999900000066329300000000150001                              Transferencia
20201205090411006700000000048919700000017000014                              ""           
20201205090561462900000000002206200000052500015                              077080020    
20201205090511088500000000048058500000005000002                              ""           
20201205090511024600000000099112600000005000001                              ""           
20201205090561961000000000011022600000000535031                              013391069    
20201205090511025900000000006307200000000050001                              ""           
20201205090511740200000000040420700000000500015                              ""           
20201205090514085999900000066369600000003000001                              Donativo Tele
20201205090511429800000000076946300000000500022                              ""           
20201205090611446400000000064342400000011136013                              ""           
20201205090661030200000000095911100000005255011                              059215018    
20201205090611055200000000098386200000001000008                              ""           
20201205090661462900000000002206700000007410015                              094439011    
20201205090614026249100000087887600000015000011                                           
20201205090611031900000000000419400000008000016                              ""           
20201205090611033100000000017294100000005000030                              ""           
20201205090611001200000000066250500000000050013                              ""           
20201205090611073000000000001563100000000500013                              ""           
20201205090611055100000000053685900000002500006                              ""           
20201205090761091300000000054592100000002000020                              498573822    
20201205090711051500000000096765500000003000001                              ""           
20201205090712012999900000048838900000030000028                              ""           
20201205090711024300000000024109300000002500015                              ""           
20201205090711050500000000023305800000000500015                              ""           
20201205090761040000000000059632200000010025014                              049739029    
20201205090711462900000000002207200000000530015                              ""           
20201205090711713100000000041693300000001000014                              ""           
20201205090711017600000000013007800000000350012                              ""           
20201205090771462900000000002207700000004650515                              1713031399   
20201205090761091300000000054592600000004000020                              498573822    
20201205090711082100000000071895000000000400031                              ""           
20201205090711713100000000041693800000001000014                              ""           
20201205090711048700000000099596100000000200013                              ""           
20201205090811444700000000054755200000000100021                              ""           
20201205090861008300000000003757600000000080006                              025439014    
20201205090881085900000000066498100000000020001                              Evento Teleto
20201205090811465000000000098673700000001000015                              ""           
20201205090811713100000000041694300000001000014                              ""           
20201205090811713100000000041694800000001000014                              ""           
20201205090811713100000000041695300000001000014                              ""           
20201205090811488200000000005619100000000570025                              ""           
20201205090811053400000000095353800000001000001                              ALEX BEUCHOT 
20201205090881085900000000066547100000000020001                              Evento Teleto
20201205090811052100000000058122100000000200015                              ""           
20201205090891523800000000085127300000000200001                              Evento Teleto
20201205090911445400000000008442600000001000029                              ""           
20201205090911445400000000008443100000001000029                              ""           
20201205090981085900000000066579400000000010001                              Evento Teleto
20201205090911488200000000005619600000000250025                              ""           
20201205090981085900000000066600900000000500001                              Evento Teleto
20201205090981085900000000066609200000000500001                              Evento Teleto
20201205090911070300000000089965600000001000015                              ""           
20201205090911042300000000007011500000002000014                                           
20201205091011061700000000058669500000004000015                              ""           
20201205091011417200000000002301700000001400025                              ""           
20201205091024051966900000000002700000005000001                                           
20201205091011026700000000048866900000000500016                              ""           
20201205091061008300000000003758100000000270006                              025437076    
20201205091011405600000000089509700000000020011                              MAMM960425QA3
20201205091011006400000000058680200000000200024                              ""           
20201205091011099700000000041842300000002000017                              ""           
20201205091061750500000000097540800000009221015                              073448066    
20201205091011020400000000067568300000002000016                              ""           
20201205091011072800000000065802100000001000007                              ""           
20201205091011042600000000025972500000000150016                              ""           
20201205091124051979600000000002800000010000001                                           
20201205091111440900000000047036300000002000015                                           
20201205091161467900000000001789200000036000014                              049486046    
20201205091111021300000000048027100000002000030                              ""           
20201205091111446400000000064342900000002000013                              ""           
20201205091111064300000000073685900000002000023                              CAHR650621UBA
20201205091111089100000000073112800000000500014                              ""           
20201205091181085900000000066702200000000250001                              Evento Teleto
20201205091161040000000000059632700000001550014                              049741054    
20201205091161008300000000003758600000001052006                              025438045    
20201205091191087000000000004627000000005000001                              FRANCISCO DE 
20201205091261462900000000002208200000000010015                              092572030    
20201205091211041400000000051751600000000200001                                           
20201205091211457700000000031821600000002000015                              ""           
20201205091211016400000000091454400000002000011                              ""           
20201205091211042600000000025973000000000175016                              ""           
20201205091211089100000000073113300000000500014                              ""           
20201205091261008300000000003759100000000530006                              025436010    
20201205091361467900000000001789700000010225014                              050233096    
20201205091361008300000000003759600000000410006                              025447047    
20201205091311460300000000028203300000005000015                              ""           
20201205091311026000000000042992300000000500001                              ""           
20201205091311006500000000076689000000000500001                              ""           
20201205091311053200000000020367700000003000001                              ""           
20201205091325051930800000000002900000002000001                                           
20201205091311089100000000073113800000002000014                              ""           
20201205091361003100000000000885700000001250021                              069097044    
20201205091311057000000000017282600000002000011                              ""           
20201205091411460300000000028203800000000500015                              ""           
20201205091411012900000000048839400000002000028                              ""           
20201205091411031500000000071645700000001000014                              ""           
20201205091411082400000000028758900000001450015                              ""           
20201205091461003100000000000886200000000350021                              071046064    
20201205091411427400000000080168900000000100015                              JULIETA      
20201205091411012900000000048839900000002000028                              ""           
20201205091411427400000000080169400000000100015                              MATHIAS      
20201205091411599600000000095006000000001000015                                           
20201205091424051909500000000003000000010000001                                           
20201205091461008300000000003760100000000530006                              025440070    
20201205091424051997300000000003100000001000001                                           
20201205091411065000000000095761900000005000001                              ""           
20201205091561008300000000003760600000020850006                              025669075    
20201205091581085900000000066909000000001000001                              Evento Teleto
20201205091511446300000000032901200000001500015                                           
20201205091561040000000000059630300000001660014                              049742023    
20201205091511020300000000063546300000005000007                              ""           
20201205091511446400000000064343400000000250013                              ""           
20201205091581085900000000066922300000000200001                              Evento Teleto
20201205091561003100000000000886700000000220021                              071029029    
20201205091561008300000000003761100000000560006                              025452076    
20201205091526051900600000000003200000010000001                                           
20201205091511453400000000077290400000001000014                              ""           
20201205091561008300000000003761600000000285006                              025458084    
20201205091561405300000000072069000000005370002                              050778098    
20201205091611028900000000022996500000012535022                              ""           
20201205091611005400000000070459900000001000021                              ""           
20201205091611747000000000016795600000000500013                              ""           
20201205091681085900000000066973600000000500001                              Evento Teleto
20201205091611012200000000039613300000010000013                              ""           
20201205091611879200000000016158100000001000019                              ""           
20201205091624051949700000000003300000005000001                                           
20201205091661008300000000003762100000000810006                              025456049    
20201205091611451100000000042056100000001000019                              ""           
20201205091724051907000000000003400000002000001                                           
20201205091711024600000000099113100000001000001                              ""           
20201205091761003100000000000887200000001705021                              071037062    
20201205091711755400000000095243000000005000001                              ""           
20201205091761008300000000003762600000001770006                              025455080    
20201205091711465300000000032481700000000500031                              ""           
20201205091714045859500000013121700000005000015                                           
20201205091761008300000000003763100000001535006                              025453045    
20201205091711010200000000038141300000001200002                              ""           
20201205091781085900000000067059600000000300001                              51220        
20201205091781085900000000067072000000005000001                              Evento Teleto
20201205091711031000000000037206600000002000011                              ""           
20201205091811411800000000038421600000000500015                              ""           
20201205091811034500000000070515900000000500014                              ""           
20201205091811654700000000015351500000001000015                              ""           
20201205091861040000000000059633200000000890014                              049737091    
20201205091811006400000000058680700000020000024                              ""           
20201205091881085900000000067097800000000074501                              Evento Teleto
20201205091814045859500000013122200000005000015                                           
20201205091811031000000000037207100000003000011                              ""           
20201205091811014500000000065214700000000150005                              ""           
20201205091861008300000000003763600000000430006                              025450041    
20201205091811023700000000047968700000000200025                                           
20201205091811076500000000000030800000001684015                              ""           
20201205091911411800000000038423000000000700015                              ""           
20201205091911073100000000094748500000001000022                              ""           
20201205091911461500000000075441700000000500023                              ""           
20201205091911082000000000079893100000035000027                              ""           
20201205091991087000000000004937300000010000001                              DAVID REYNALD
20201205091911040400000000017939100000002000001                              ""           
20201205091981085900000000067179000000002000001                              Evento Teleto
20201205091911429800000000076946800000010000022                              MUPJ530825626
20201205091911488200000000005620100000000500025                              ""           
20201205091981085900000000067192700000003000001                              Evento Teleto
20201205092061003100000000000887700000001381021                              071043060    
20201205092011057300000000005082100000005000015                              ""           
20201205092061008300000000003764100000001300006                              025451010    
20201205092011010200000000038141800000005000002                              ""           
20201205092011026900000000063088600000011000001                              ""           
20201205092011411800000000038423500000000300015                              ""           
20201205092011002400000000016126200000000300014                              ""           
20201205092011014500000000065215200000000500005                              ""           
20201205092025051957100000000003500000010000001                                           
20201205092011001600000000093683400000000400015                              ""           
20201205092111073000000000001563600000002000013                              ""           
20201205092161040000000000059633700000000820014                              049735056    
20201205092181085900000000067274700000005000001                              Evento Teleto
20201205092124051919100000000003600000003000001                                           
20201205092111051600000000022661700000002000001                              ""           
20201205092111488200000000005620600000000500025                              ""           
20201205092111093800000000096140000000000500030                              ""           
20201205092111410100000000061021900000035000015                              ""           
20201205092161008300000000003764600000010035006                              025454014    
20201205092211045500000000094796400000000500013                              ""           
20201205092244051999900000003012100000100000001                              PEREGRINA AUT
20201205092211488200000000005621100000000500025                              ""           
20201205092244087099900000005036400000010000001MARIA CONCEPCION TOBON CASTILL             
20201205092211488200000000005621600000000500025                              ""           
20201205092211476900000000091100300000000500015                              ""           
20201205092261437500000000028206800000004103013                              073110082    
20201205092214085999900000067349300000001000001                              DONACIN      
20201205092214034879100000014407300000001000019                                           
20201205092224051979600000000003700000003380001                                           
20201205092211097300000000042369400000004000019                              ""           
20201205092311443000000000016620200000001000015                                           
20201205092361467900000000001790200000005000014                              050041078    
20201205092311009200000000065214700000002000015                              ""           
20201205092361021300000000048027600000009275030                              043848025    
20201205092311465000000000098674200000000500015                              ""           
20201205092311089800000000019755500000002000032                              ""           
20201205092311471800000000001801100000000500002                              ""           
20201205092311054700000000077061100000003000022                              ""           
20201205092311009200000000065215200000002000015                              ""           
20201205092314095489200000036953400000010000014                                           
20201205092361489600000000089020800000006300031                              013137006    
20201205092381085900000000067407600000001000001                              Evento Teleto
20201205092361072900000000066783900000014765022                              077663041    
20201205092311599900000000068130100000000500001                              ""           
20201205092461030200000000095911600000001010011                              059038010    
20201205092461489700000000001936600000020000002                              050397066    
20201205092411054700000000077061600000002000022                              ""           
20201205092411034500000000070516400000000200014                              ""           
20201205092412427299900000097789300000007000001                                           
20201205092461462900000000002208700000012000015                              094205074    
20201205092461489700000000001937100000000300002                              050396097    
20201205092411025500000000007994600000005000014                              ""           
20201205092411095400000000036953900000000500014                              ""           
20201205092411010300000000067198500000005000030                              ""           
20201205092411014100000000019044600000000500001                              ""           
20201205092511425700000000000560300000010000010                              ""           
20201205092561467900000000001790700000007287014                              047451035    
20201205092514085999900000067495200000100000001                              DONATIVO TELE
20201205092511441300000000098041200000002500031                              ""           
20201205092561489700000000001937600000000500002                              050398035    
20201205092561027700000000049700800000001155021                              069039059    
20201205092511445400000000008443600000001000029                              ""           
20201205092511467900000000001788300000004000014                              ""           
20201205092511434900000000077411400000000100015                              ""           
20201205092511032300000000069912900000000200027                              ""           
20201205092511044700000000003173700000001000016                              ""           
20201205092561489700000000001938100000000200002                              050400036    
20201205092514085999900000067535300000005000001                              Teleton      
20201205092511014500000000065215700000000500005                              ""           
20201205092611066100000000031151100000010000001                              GAJJ650211U78
20201205092611045700000000023156700000001000001                              ""           
20201205092611434900000000077411900000001000015                              ""           
20201205092661489700000000001938600000000500002                              050399004    
20201205092661467700000000000859000000006000011                              057630061    
20201205092611030100000000007288000000001000014                              ""           
20201205092611032300000000069913400000000200027                              ""           
20201205092611051800000000034342000000001000001                              ""           
20201205092611035400000000002922700000000010016                              ""           
20201205092611066100000000031151600000002000001                              GAJJ650211U78
20201205092611037900000000058761100000001000001                              ""           
20201205092611434900000000077412400000000500015                              ""           
20201205092661489700000000001939100000000500002                              050395031    
20201205092624051989500000000003800000010000001                                           
20201205092625051988700000000003900000001000001                                           
20201205092761031500000000071646700000004391014                              049462034    
20201205092724051999700000000004000000001000001                                           
20201205092714026699900000072582600000010000001                                           
20201205092761755000000000024034500000006150001                              092534084    
20201205092711042300000000007012000000001000014                                           
20201205092724051989000000000004100000005000001                                           
20201205092724051949500000000004200000010000001                                           
20201205092711409200000000090588300000000200019                              ""           
20201205092711437600000000056377900000001500011                              ""           
20201205092711025300000000050271100000002000014                              ""           
20201205092761467700000000000859500000006710011                              057581005    
20201205092711437600000000056378400000001500011                              ""           
20201205092761021300000000048028100000005705030                              044864072    
20201205092811024300000000024109800000001000015                              ""           
20201205092825051961200000000004300000003000001                                           
20201205092811047200000000009958600000000600026                              ""           
20201205092871429100000000019604400000005270014                              049503057    
20201205092824051969200000000004400000000500001                                           
20201205092881085900000000067684600000010000001                              Evento Teleto
20201205092811030100000000007288500000001000014                              ""           
20201205092881085900000000067690900000000140001                              Evento Teleto
20201205092811028000000000035212700000000400027                              ""           
20201205092811051800000000034342500000003000001                              ""           
20201205092811445400000000008444100000001000029                              ""           
20201205092861030200000000095912600000002155011                              059220047    
20201205092911025500000000007995100000002500014                              ""           
20201205092924051909800000000004500000001000001                                           
20201205092961176700000002374492200000004105001                                           
20201205092961003100000000000888200000011290021                              071032023    
20201205092961012000000000094580900000002415020                              0047500091   
20201205092925051907000000000004600000002000001                                           
20201205092911061700000000058670000000002000015                              ""           
20201205092981085900000000067760900000001000001                              Evento Teleto
20201205092911066200000000004352700000010000001                              ""           
20201205092981085900000000067766700000000071101                              Evento Teleto
