20201205083081085900000000064878000000000172901                              51220        
20201205083081085900000000064885100000005000001                              Evento Teleto
20201205083161467900000000001782200000007580014                              050287021    
20201205083111010200000000038140800000001000002                              ""           
20201205083111744000000000015431300000005000023                              ""           
20201205083111713000000000009155300000000500005                              ""           
20201205083211031300000000007281000000000500011                              ""           
20201205083211004000000000033809600000005000022                              ""           
20201205083291087000000000003349400000001000001                              ERIC LORENZO 
20201205083425051955100000000000300000030000001                                           
20201205083425051932900000000000400000001000001                                           
20201205083411022800000000096378800000000200021                              ""           
20201205083411411500000000076085500000000200027                              ""           
20201205083511744000000000015431800000005000023                              ""           
20201205083511434600000000055824800000000500001                              ""           
20201205083511035400000000002921700000002000016                              ""           
20201205083524051969500000000000500000010000001                                           
20201205083511042300000000007011000000000500014                                           
20201205083611033100000000017293100000000500030                              ""           
20201205083661467900000000001782700000010840014                              050088036    
20201205083611405600000000089509200000002000011                              ""           
20201205083611464100000000097032900000001000001                              ""           
20201205083711093800000000096138500000004000030                              ""           
20201205083761431300000000092656300000005120030                              044841029    
20201205083711093800000000096139000000001000030                              ""           
20201205083811462900000000002205200000007400015                              ""           
20201205083824051969600000000000600000005000001                                           
20201205083881085900000000065122500000001000001                              Evento Teleto
20201205083861467900000000001783200000015000014                              050041078    
20201205083811055700000000084731900000000500019                              ""           
20201205083824051929000000000000700000020000001                                           
20201205083961744000000000015432300000004320023                              008065023    
20201205083981085900000000065151600000003000001                              Evento Teleto
20201205083961030200000000095909100000004940011                              059219088    
20201205083911085600000000088027700000007000001                              ""           
20201205084011716300000000015165600000001000015                              ""           
20201205084061467900000000001783700000011410014                              050085032    
20201205084025051992800000000000800000000500001                                           
20201205084061001200000000066249500000002700013                              083656036    
20201205084011446400000000064340900000000200013                              ""           
20201205084061467900000000001784200000010700014                              050086098    
20201205084111740200000000040420200000007000015                              MIMM8103169E9
20201205084111445400000000008441600000001000029                              ""           
20201205084161467900000000001785200000004300014                              050225063    
20201205084111053200000000020367200000000500001                              ""           
20201205084161467900000000001785700000016000014                              050265044    
20201205084111051400000000098917100000000200001                              ""           
20201205084114022019300000075485000000000100006                                           
20201205084111472200000000013343800000002000014                              ""           
20201205084191087000000000003632700000000500001                              MARIA DE LOUR
20201205084224051970400000000000900000015000001                                           
20201205084281085900000000065245300000001000001                              Evento Teleto
20201205084224051917200000000001000000010000001                                           
20201205084211657700000000087379300000000300021                              ""           
20201205084361026700000000048864400000000850016                              0063270096   
20201205084361040000000000059629200000002515014                              049738060    
20201205084311004600000000003689100000000500008                              ""           
20201205084312427299900000097788300000001000001                                           
20201205084361012700000000038112600000005210024                              055021041    
20201205084381085900000000065293200000002500001                              Evento Teleto
20201205084311097400000000044978100000001000030                              ""           
20201205084361467900000000001786200000007020014                              049275055    
20201205084461031700000000000367100000013680012                              081093092    
20201205084411061100000000066445500000001000030                              ""           
20201205084461026700000000048864900000000195016                              0063269040   
20201205084481085900000000065325400000001500001                              Evento Teleto
20201205084411466900000000061860500000000500015                              ""           
20201205084411004600000000003689600000000500008                              ""           
20201205084461026700000000048865400000000230016                              0063265067   
20201205084481085900000000065341900000000500001                              Evento Teleto
20201205084411825400000000086277500000000200022                              ""           
20201205084511445400000000008442100000001000029                              ""           
20201205084561744500000000098571700000002039823                              008160058    
20201205084581085900000000065348100000002000001                              Evento Teleto
20201205084511041400000000051751100000001000001                                           
20201205084511069100000000020203900000001000024                              ""           
20201205084561072900000000066783400000003645022                              057830015    
20201205084511053600000000022092400000002000015                              ""           
20201205084661026700000000048865900000000420016                              0063267005   
20201205084624051989800000000001100000004000001                                           
20201205084611053600000000022092900000001000015                              ""           
20201205084661040000000000059629700000001340014                              049740085    
20201205084661008300000000003757100000002720006                              025751038    
20201205084681085900000000065407300000001000001                              Evento Teleto
20201205084661030200000000095909600000007325011                              059060074    
20201205084611444000000000007997800000000500015                              ""           
20201205084711035400000000002922200000000500016                              ""           
20201205084771057300000000005081600000005000015                                           
20201205084761467900000000001786700000001340014                              050185009    
20201205084711031000000000037206100000000500011                              ""           
20201205084711016000000000046882600000000500001                              ""           
20201205084724051989800000000001200000004000001                                           
20201205084761046800000000010337000000004650023                              007785017    
20201205084811016300000000004791700000000500032                              498573822    
20201205084881085900000000065458800000000500001                              Evento Teleto
20201205084861467900000000001787200000009754014                              049277090    
20201205084811446400000000064341400000005000013                              ""           
20201205084811051500000000096765000000001000001                              ""           
20201205084811033500000000053816500000002000011                              ""           
20201205084861467900000000001787700000003725014                              050057057    
20201205084911026200000000087887100000002000011                              ""           
20201205084911446400000000064341900000050000013                              ""           
20201205084911012200000000039612800000001000013                              ""           
20201205084911879200000000016157600000005000019                              EIGJ610714QX7
20201205084911022800000000096379300000001000021                              ""           
20201205084981085900000000065529000000000500001                              Evento Teleto
20201205085011016300000000004792200000000200032                              498573822    
20201205085081085900000000065535600000000500001                              Evento Teleto
20201205085011744000000000015432800000001000023                              ""           
20201205085061963900000000081117300000001280013                              073411079    
20201205085014046409700000043551100000000700014                                           
20201205085124051975200000000001300000003000001                                           
20201205085191087000000000003922700000000100001                              JULIO CESAR V
20201205085111042700000000016965800000000500016                              ""           
20201205085111468600000000047769600000005000001                              ""           
20201205085111444000000000007998300000005000015                              ""           
20201205085111012700000000038113100000005000024                              ""           
20201205085111462300000000033112500000000300005                              ""           
20201205085261476900000000091099700000007265015                              092614022    
20201205085225051976300000000001400000010000001                                           
20201205085261442400000000029814200000011820028                              020852079    
20201205085261040000000000059630200000001825014                              049744058    
20201205085225051980200000000001500000001500001                                           
20201205085261467900000000001788200000037000014                              073453953    
20201205085261023600000000063876500000011937001                              092476026    
20201205085381085900000000065696500000000170001                              Evento Teleto
20201205085311017700000000070199200000002000030                              ""           
20201205085311098500000000080112500000005000013                              ""           
20201205085324051969900000000001600000000500001                                           
20201205085325051959500000000001700000001500001                                           
20201205085324051919200000000001800000003000001                                           
20201205085381085900000000065726100000001000001                              Evento Teleto
20201205085311713100000000041692800000001000014                              ""           
20201205085314085999900000065734500000004000001                              DONATIVO     
20201205085311001200000000066250000000012500013                              ""           
20201205085381085900000000065740700000010000001                              Evento Teleto
20201205085425051930300000000001900000005000001                                           
20201205085411042700000000016966300000001000016                              ""           
20201205085411069800000000090074300000000500001                              ""           
20201205085411411800000000038422500000010000015                              ""           
20201205085411476900000000091100200000001000015                              ""           
20201205085491087000000000004039800000000500001                              MIGUEL ANGEL 
20201205085524051919700000000002000000001000001                                           
20201205085561040000000000059630700000001210014                              049745027    
20201205085511010400000000022507100000002000011                              ""           
20201205085511064100000000028440000000001000016                              ""           
20201205085511033100000000017293600000000500030                              ""           
20201205085525051920700000000002100000003000001                                           
20201205085661095300000000091039500000002000016                              498573822    
20201205085611441300000000098040700000000500031                              ""           
20201205085625051964000000000002200000005000001                                           
20201205085611451800000000059336000000001000001                              ""           
20201205085681085900000000065874300000003000001                              Evento Teleto
20201205085691087000000000004099200000001000001                              LUIS ENRIQUE 
20201205085611418300000000086338000000003000001                              ""           
20201205085661043500000000053647100000003895016                              065777017    
20201205085661095300000000091040000000002000016                              498573822    
20201205085661467900000000001788700000000760014                              049409088    
20201205085681085900000000065893400000000020001                              Evento Teleto
20201205085661040000000000059631200000000380014                              049746093    
20201205085781085900000000065900600000000500001                              Evento Teleto
20201205085771010700000000065338200000024745017                                           
20201205085724051979600000000002300000010000001                                           
20201205085791087000000000004118900000000500001                              MARIA EUGENIA
20201205085711451800000000059336500000002000001                              ""           
20201205085711061700000000058669000000001000015                              ""           
20201205085811437500000000028206300000002000013                              ""           
20201205085811451800000000059337000000001000001                              ""           
20201205085861467700000000000858500000007335011                              057686021    
20201205085811426700000000075117500000001000014                                           
20201205085861040000000000059631700000002605014                              049736025    
20201205085811004000000000033810100000000500022                              ""           
20201205085811451800000000059337500000001000001                              ""           
20201205085961030200000000095910100000011260011                              059085055    
20201205085911088500000000048058000000010000002                              ""           
20201205085911089000000000040857500000000060023                              ""           
20201205085911019200000000044018500000001910014                              ""           
20201205085911451800000000059338000000001000001                              ""           
