20201205130024051909800000000040700000003000001                                           
20201205130011011800000000061245200000005000016                              ""           
20201205130011050600000000057554200000001500015                                           
20201205130011750800000000070154900000000500006                              ""           
20201205130061063200000000065664700000000530016                              066062052    
20201205130011657700000000087380800000005000021                              ""           
20201205130011023900000000062962700000001000030                              ""           
20201205130011011000000000054841400000001340014                              ""           
20201205130024051939600000000040800000006000001                                           
20201205130061457700000000031827600000002000015                              498573822    
20201205130011418300000000086340500000001000001                              ""           
20201205130011045900000000009477900000002500016                              ""           
20201205130011025900000000006312700000005000001                              ""           
20201205130011051600000000022672200000031200001                              ""           
20201205130011015100000000097786500000001000023                              ""           
20201205130011021300000000048036200000001000030                              ""           
20201205130011750800000000070151500000000200006                              ""           
20201205130011050600000000057554700000002000015                                           
20201205130011466700000000003961800000000500011                              ""           
20201205130011070100000000063342500000012500001                              ""           
20201205130011083900000000043668400000001000015                              VAPE630912   
20201205130061408300000000052042600000002560001                              085240014    
20201205130011434900000000077420900000001000015                              ""           
20201205130011047500000000021158800000008300011                              ""           
20201205130011009200000000065215300000010000015                              ""           
20201205130011042700000000016969800000010000016                              ""           
20201205130014085999900000082975900000001000001                              DONATIVO     
20201205130011070800000000080413800000010000014                              ""           
20201205130011022300000000031996600000001000016                              ROSAMAZANZON 
20201205130011065200000000064945500000002000009                              ""           
20201205130011033100000000017305100000003000030                              ""           
20201205130061021600000000037094800000000185028                              021126087    
20201205130011098600000000005574100000001000015                                           
20201205130011009200000000065217200000010000015                              ""           
20201205130011440300000000064121000000003500015                              ""           
20201205130011032300000000069920900000000500027                              ""           
20201205130011066400000000000540200000002000014                              ""           
20201205130011004600000000003692600000002000008                              ""           
20201205130011411800000000038431500000001100015                              ""           
20201205130011083900000000043668900000000500015                              ""           
20201205130011020100000000055416700000002000014                              ""           
20201205130061080700000000000451300000003540016                              066143056    
20201205130111750800000000070149000000001000006                              ""           
20201205130111446400000000064354900000000300013                              ""           
20201205130111032300000000069921400000000500027                              ""           
20201205130161467900000000001807800000004020014                              049568019    
20201205130111022300000000031997100000001000016                              MARGARITAZANZ
20201205130181085900000000083025100000001500001                              Evento Teleto
20201205130161023500000000080157800000003320031                              013606009    
20201205130111083900000000043669400000000700015                              ""           
20201205130161467700000000000863700000004086011                              059323028    
20201205130111070100000000063343000000050000001                              ""           
20201205130111713100000000041694400000001500014                              ""           
20201205130111440300000000064121500000001000015                              ""           
20201205130161903300000000039858100000000990031                              013209008    
20201205130161080700000000000451800000000120016                              065869058    
20201205130161050500000000023318800000004490015                              094069016    
20201205130111817100000000038505700000000600021                              ""           
20201205130111052300000000013626000000003097015                              ""           
20201205130111020300000000063552300000002000007                              ""           
20201205130161446100000000011303600000007270015                              092656038    
20201205130111029400000000036874100000000050018                              ""           
20201205130161021600000000037095300000000600028                              021098039    
20201205130181085900000000083061000000000500001                              Evento Teleto
20201205130111020300000000063552800000002000007                              ""           
20201205130111038000000000057054400000001000014                                           
20201205130111082700000000000394500000001000013                              ""           
20201205130161980400000000005227100000003485001                              089619042    
20201205130111028900000000023012500000001500022                              ""           
20201205130181085900000000083079100000000050001                              Evento Teleto
20201205130271016000000000046888600000000500001                                           
20201205130281085900000000083089300000005000001                              Evento Teleto
20201205130261031000000000037212600000025735011                              076953020    
20201205130211434400000000075529200000002000015                              ""           
20201205130211011000000000054841900000002000014                              ""           
20201205130211422600000000052842600000002000018                              ""           
20201205130211406200000000025149300000000100003                                           
20201205130261980400000000005227600000002390001                              085321018    
20201205130211026000000000042995800000010000001                              ""           
20201205130261003800000000047892200000014955022                              077568006    
20201205130211050500000000023319300000002000015                              ""           
20201205130211446100000000011304100000001500015                              ""           
20201205130211007400000000088457400000005000009                              ""           
20201205130211042700000000016970300000001000016                              ""           
20201205130211056100000000006642800000015000011                              ""           
20201205130281085900000000083126300000005000001                              Evento Teleto
20201205130225051964200000000040900000050000001                                           
20201205130211099700000000041845800000000500017                              ""           
20201205130211098400000000048277400000002000014                              ""           
20201205130211093500000000075338500000001000028                              ""           
20201205130211713100000000041698300000001500014                              ""           
20201205130261467900000000001817200000001000014                              049270016    
20201205130211016600000000009944100000005000032                                           
20201205130261003800000000047894600000001050022                              077559004    
20201205130211061900000000009814700000000200030                              ""           
20201205130261960400000000078714000000005000014                              047638024    
20201205130281085900000000083150300000000500001                              Evento Teleto
20201205130211824100000000008089900000001000025                              ""           
20201205130261090900000000049951100000010349031                              015084991    
20201205130261750800000000070140000000001090006                              035239043    
20201205130211434400000000075529700000001000015                              ""           
20201205130211015800000000080779500000000500025                              ""           
20201205130261431300000000092661800000006100030                              044964049    
20201205130325051930700000000041000000005000001                                           
20201205130311050500000000023319800000005000015                              ""           
20201205130311798900000000089665900000002000015                              ""           
20201205130311065200000000064946000000005000009                              ""           
20201205130361051300000000009194500000028270015                              092537088    
20201205130311022500000000012988100000001000014                              ""           
20201205130311028900000000023013000000001000022                              ""           
20201205130361003800000000047895100000003350022                              077498039    
20201205130311035100000000065358900000002000014                              ""           
20201205130361467900000000001803300000002520014                              049271082    
20201205130361462900000000002229700000010065015                              094454011    
20201205130361063200000000065665200000001400016                              066055085    
20201205130311408200000000008783000000001000001                              ""           
20201205130361467900000000001817700000007390014                              049527069    
20201205130311099700000000041846300000000500017                              ""           
20201205130324051911700000000041100000010000001                                           
20201205130361021600000000037095800000001900028                              021095035    
20201205130311598700000000097038200000005000015                                           
20201205130361094900000000029921900000026235013                              073402077    
20201205130311055100000000053688400000002500006                              ""           
20201205130311435700000000078127100000002000003                              ""           
20201205130311028900000000023013500000001000022                              ""           
20201205130361430900000000000087500000009265012                              081455054    
20201205130414413719600000022372800000002000014                                           
20201205130411425700000000000570300000010000010                              ""           
20201205130411011800000000061245700000001000016                              ""           
20201205130411016400000000091459900000000500011                              ""           
20201205130471011700000000052320900000003000019                                           
20201205130411099700000000041846800000000500017                              ""           
20201205130411412000000000093432400000030000015                              ""           
20201205130461431300000000092662300000008000030                              043546059    
20201205130461750800000000070155400000001580006                              035320037    
20201205130411099100000000090917300000001000001                                           
20201205130411028900000000022999100000001000022                              ""           
20201205130411447800000000092219700000000500028                              ""           
20201205130411050600000000057555200000001000015                                           
20201205130425051921600000000041200000005000001                                           
20201205130491087000000000018218000000000000101                              LUCERO CARINA
20201205130461045500000000094801400000010100013                              073674057    
20201205130411418000000000050013200000000500026                              EECJ790205   
20201205130481085900000000083287700000000500001                              Evento Teleto
20201205130414014799900000042980400000001000022                              498573822    
20201205130424051926000000000041300000010000001                                           
20201205130411462200000000037650300000002000009                              ""           
20201205130461467700000000000874400000009170011                              059140012    
20201205130411098500000000080120000000000200013                              ""           
20201205130461003800000000047895600000005730022                              077561029    
20201205130411019200000000044022000000001000014                              ""           
20201205130411451800000000059348000000001000001                              ""           
20201205130411809300000000026146100000005000001                              ""           
20201205130425051909000000000041400000005000001                                           
20201205130411083900000000043669900000006000015                              AAVH731217CR9
20201205130411099700000000041847300000002500017                              ""           
20201205130571417900000000081001400000010350026                              004418059    
20201205130511001200000000066257500000000120013                              ""           
20201205130511023600000000063877600000001000001                                           
20201205130561486500000000028105700000006000021                              071268092    
20201205130561021300000000048042600000004055030                              043753077    
20201205130511050600000000057555700000001000015                                           
20201205130511099700000000041847800000002500017                              ""           
20201205130511438200000000063559700000001000027                              ""           
20201205130511050600000000057556200000055000015                                           
20201205130514014799900000042975000000005000022                              GAEL ALCOCER 
20201205130511417200000000002303200000001500025                              ""           
20201205130561486500000000028106200000006000021                              071424092    
20201205130561741800000000070419700000008000008                              036757010    
20201205130511418000000000050013700000000400026                              GABE631026   
20201205130561021600000000037087900000000650028                              021111077    
20201205130511001200000000066252100000000300013                              ""           
20201205130511409000000000002021000000003000015                              ""           
20201205130561467700000000000888600000007245011                              059326032    
20201205130561431300000000092662800000008000030                              043547028    
20201205130561410100000000061025900000020145015                              092639003    
20201205130561045500000000094801900000006500013                              073670084    
20201205130511016200000000063932600000003000013                              ""           
20201205130511415300000000091009200000000500015                              ""           
20201205130511882900000000028544100000001500014                              ""           
20201205130614013399900000005668700000001000018                                           
20201205130614013399900000005668800000000500018                                           
20201205130614013399900000005668900000000500018                                           
20201205130611012200000000039623800000002000013                              ""           
20201205130611002400000000016130700000005000014                              ""           
20201205130611024600000000099117200000001000001                              ""           
20201205130611656600000000091233400000001000011                              ""           
20201205130611043500000000053652100000001000016                              ""           
20201205130611002400000000016131200000003000014                              ""           
20201205130624051999500000000041500000002000001                                           
20201205130661750800000000070155900000001050006                              035321006    
20201205130611079800000000034606800000000500015                                           
20201205130624051921700000000041600000010000001                                           
20201205130661080700000000000453800000000130016                              065843011    
20201205130611012900000000048840500000005000028                              ""           
20201205130611012100000000080370000000000500030                              ""           
20201205130625051924200000000041700000003000001                                           
20201205130691523800000000086185800000001000001                              Evento Teleto
20201205130661080700000000000454300000000160016                              065870017    
20201205130611089800000000019759000000000500032                              ""           
20201205130611012200000000039624300000000500013                              ""           
20201205130611024300000000024118800000001000015                              ""           
20201205130661003800000000047896100000004105022                              077497070    
20201205130611076800000000027387500000004000019                                           
20201205130612453999900000000652200000050000001                                           
20201205130671417900000000081001900000006330026                              004422022    
20201205130611027900000000041073000000021500014                              ""           
20201205130611024300000000024119300000000200015                              ""           
20201205130625051913500000000041800000010000001                                           
20201205130661021600000000037096300000000800028                              021125021    
20201205130611024500000000039186700000000500001                              ""           
20201205130661078100000000022519200000030000021                              498573822    
20201205130681085900000000083482700000000320401                              Evento Teleto
20201205130614084669300000034369500000001000015                                           
20201205130611050500000000023320300000002000015                              ""           
20201205130611010900000000059821600000004200010                              ""           
20201205130611093800000000096144000000001000030                              ""           
20201205130661080700000000000454800000000100016                              065837013    
20201205130661431300000000092663300000002000030                              043598046    
20201205130611096400000000010419300000000500003                              ""           
20201205130711024600000000099124100000002000001                              ""           
20201205130761741800000000070420200000008650008                              036620046    
20201205130711012200000000039624800000000500013                              ""           
20201205130761437100000000090404900000006655002                              050444087    
20201205130711096400000000010419800000000500003                              ""           
20201205130711012900000000048845400000040000028                              ""           
20201205130711410100000000061026400000001000015                              ""           
20201205130761097600000000064725200000021000015                              092562059    
20201205130711024300000000024110900000000500015                              ""           
20201205130724051969000000000041900000000500001                                           
20201205130761004000000000033816100000003245022                              077340067    
20201205130711044900000000036845300000005000014                              ""           
20201205130781085900000000083523400000003000001                              Evento Teleto
20201205130711010200000000038148800000002890002                              ""           
20201205130761021600000000037096800000000165028                              021099008    
20201205130711035100000000065359400000035000014                              ""           
20201205130711050600000000057556700000004500015                                           
20201205130711096400000000010420300000000550003                              ""           
20201205130761010500000000056416300000000770001                              089532030    
20201205130761467900000000001818200000010000014                              050033045    
20201205130711024300000000024116400000001000015                              ""           
20201205130711031000000000037213100000002000011                              ""           
20201205130711028300000000045083900000017500001                              ""           
20201205130711031600000000013847000000002000025                              ""           
20201205130714014799900000042980900000000710022                              077213084    
20201205130711034700000000043322900000002500015                              ""           
20201205130811017200000000006832800000000700009                              ""           
20201205130811084600000000034370000000001000015                              ""           
20201205130811798800000000048264300000002500001                              ""           
20201205130861431300000000092663800000000235030                              043748048    
20201205130811034700000000043323400000002500015                              ""           
20201205130861457700000000031828100000001000015                              498573822    
20201205130824051929300000000042000000005000001                                           
20201205130811098600000000005574600000001290015                                           
20201205130861033300000000008376600000000530001                              085310078    
20201205130861750800000000070138500000001225006                              035859041    
20201205130824051953100000000042100000003000001                                           
20201205130811060700000000018974500000005000032                              ""           
20201205130861042600000000025974000000011695016                              066097004    
20201205130811975000000000046119400000005000001                              RASA790705SI9
20201205130811040900000000007882400000002000018                              ""           
20201205130861098500000000080117100000009160013                              073627012    
20201205130811045800000000013131700000010000015                              ""           
20201205130811014500000000065223200000002000005                              ""           
20201205130811036200000000086283600000000100027                              ""           
20201205130811434600000000055827800000001000001                              ""           
20201205130811070300000000089970600000020500015                              ""           
20201205130811052100000000058127600000002000015                              FOCM730202F7A
20201205130811069000000000003262600000005000001                                           
20201205130811010800000000071117900000006970009                              ""           
20201205130811041600000000018335400000003000014                              ""           
20201205130811434600000000055828300000000500001                              ""           
20201205130814085999900000083636900000007000001                              DONATIVO TELE
20201205130811411800000000038432000000004000015                              ""           
20201205130811016600000000009944600000002000032                                           
20201205130911024600000000099124600000008000001                              ""           
20201205130911004000000000033809700000002000022                              ""           
20201205130911446400000000064350000000003000013                              ""           
20201205130911027600000000082560200000000500014                              ""           
20201205130911066100000000031154100000001000001                              ""           
20201205130911010800000000071118400000000030009                              ""           
20201205130911408200000000008783500000001000001                              ""           
20201205130914014799900000042981400000000565022                              077084090    
20201205130961003800000000047896600000000700022                              077565099    
20201205130961980400000000005228100000006847001                              085487023    
20201205130911036900000000088587500000001000001                              ""           
20201205130911712800000000079232000000000500030                              ""           
20201205130961036300000000098458100000005420026                              003851087    
20201205130911034700000000043323900000005000015                              ""           
20201205130912427299900000097797300000005000001                              ""           
20201205130911052100000000058128100000002000015                              FOCM730202F7A
20201205130911660900000000094438300000003000019                              ""           
20201205130911033000000000077003400000001000015                              ""           
20201205130911005400000000070461000000004000021                              ""           
20201205130961741800000000070420700000017200008                              036783047    
20201205130911014500000000065223700000005000005                              ""           
20201205130911465600000000067208100000003000030                              ""           
20201205130911036900000000088588000000001000001                              ""           
20201205130925051988400000000042200000010000001                                           
20201205130961003800000000047897100000003656022                              077501009    
20201205130911051800000000034344600000013000001                              ""           
20201205130911426000000000056952900000003000021                              ""           
20201205130911486200000000058569200000002000001                              ""           
20201205130914085999900000083705800000001000001                              DONACION     
20201205130911088500000000048064500000005000002                              ""           
20201205130911061700000000058681000000002000015                              ""           
20201205130911001400000000034181400000001000014                              ""           
20201205130911036900000000088588500000000500001                              ""           
20201205131061080700000000000443400000009950016                              065783015    
20201205131011073100000000094755000000001500022                              ""           
20201205131011044900000000036845800000000550014                              ""           
20201205131011001400000000034181900000002500014                              ""           
20201205131011040700000000014620600000001000018                              ""           
20201205131011012700000000038117100000002775024                              ""           
20201205131061080700000000000456800000000120016                              065836044    
20201205131011061700000000058681500000002000015                              ""           
20201205131011036900000000088589000000000500001                              ""           
20201205131011429800000000076952300000010000022                              ""           
20201205131011003600000000019754200000005000015                              ""           
20201205131061750800000000070156400000001805006                              035240099    
20201205131025051940700000000042300000010000001                                           
20201205131061080700000000000457300000000320016                              065873021    
20201205131061410100000000061026900000006870015                              092607055    
20201205131025051983400000000042400000000890001                                           
20201205131061021600000000037097300000000365028                              021104013    
20201205131011464100000000097036900000003000001                              ""           
20201205131081085900000000083789400000015000001                              Evento Teleto
20201205131011026200000000087895600000001000011                              ""           
20201205131011430800000000070104200000001000014                              ""           
20201205131011411500000000076088000000005000027                              ""           
20201205131014014799900000042981900000002000022                              GUADALUPE NOL
20201205131011023100000000052578000000000200027                              ""           
20201205131011055300000000044564100000006000029                              ""           
20201205131125051948500000000042500000005000001                                           
20201205131111015900000000031836300000000200021                              ""           
20201205131111017900000000057113100000001000008                              ""           
20201205131111034500000000070519900000001000014                              ""           
20201205131111434600000000055828800000005000001                              ""           
20201205131161080700000000000441400000000160016                              065804096    
20201205131161430900000000000088900000010200012                              081453019    
20201205131111028700000000095778300000005000001                              ""           
20201205131161021600000000037097800000000035028                              021120079    
20201205131161006700000000048923800000072496014                              049951076    
20201205131161080700000000000457800000000120016                              065862081    
20201205131111042400000000052779200000001000014                              ""           
20201205131111012100000000080375400000001000030                              ""           
20201205131161741800000000070421200000010670008                              036598006    
20201205131161003800000000047897600000001950022                              077566068    
20201205131111818500000000008872800000005000015                              ""           
20201205131161750800000000070156900000001500006                              035857006    
20201205131111018600000000064552200000002000019                              ""           
20201205131112051599900000096772000000010000001                              BAGG510214180
20201205131111032300000000069921900000001000027                              ""           
20201205131111015900000000031836800000000500021                              ""           
20201205131111046300000000093668100000001000013                              ""           
20201205131161466900000000061870500000010002015                              035535098    
20201205131114053499900000095357300000000500001                              ALEXANDRO CAS
20201205131111447300000000010112500000000200014                              ""           
20201205131181085900000000083866000000002000001                              Evento Teleto
20201205131111429800000000076952800000005000022                              ""           
20201205131111599900000000068132600000001500001                              ""           
20201205131111462900000000002214400000010000015                              ""           
20201205131111028700000000095778800000001000001                              ""           
20201205131111098600000000005575100000002000015                              ""           
20201205131113023499900000079051000000030000001                              ""           
20201205131111025800000000036498400000020000015                              ""           
20201205131161080700000000000458300000017100016                              065843011    
20201205131211462900000000002230200000010000015                              ""           
20201205131211440900000000047041800000003250015                                           
20201205131211435700000000078128100000000300003                              ""           
20201205131211462900000000002230700000010000015                              ""           
20201205131211012100000000080375900000000500030                              ""           
20201205131261055000000000063045100000006355009                              017946039    
20201205131261021600000000037098300000000500028                              021093097    
20201205131211064100000000028440100000000500016                              ""           
20201205131211497700000000094609100000000200001                              ""           
20201205131211447300000000010113000000000200014                              ""           
20201205131211005400000000070462400000005000021                              ""           
20201205131211462900000000002231200000010000015                              ""           
20201205131211001000000000087847700000002850025                              ""           
20201205131261098500000000080120500000008300013                              073626043    
20201205131261046800000000010342000000001260023                              008331068    
20201205131281085900000000083919500000040000001                              Evento Teleto
20201205131261080700000000000444400000000595016                              065843011    
20201205131211024300000000024119800000002000015                              ""           
20201205131261052700000000043927600000000821015                                           
20201205131261467900000000001817300000004820014                              049920097    
20201205131291523800000000086220800000002000001                              Evento Teleto
20201205131211054100000000009218100000015000001                              ""           
20201205131211025800000000036498900000010000015                              ""           
20201205131211471900000000036749000000010000015                              ""           
20201205131211006700000000048932200000001000014                              ""           
20201205131261750800000000070157400000002755006                              035455063    
20201205131224051911300000000042600000002000001                                           
20201205131211412000000000093432000000002000015                              ""           
20201205131211462900000000002231700000010000015                              ""           
20201205131211447300000000010113500000000200014                              ""           
20201205131211017800000000090374900000002000024                              ""           
20201205131211042500000000041304100000011271029                              ""           
20201205131261045500000000094802400000011340013                              073669028    
20201205131211036200000000086284100000000100027                              ""           
20201205131314056699900000074116200000010000001                              YOLANDA      
20201205131311474600000000035364200000002000001                              ""           
20201205131361042600000000025974500000009420016                              066104044    
20201205131361437100000000090405400000006130002                              050476035    
20201205131311019200000000044022500000006430014                              ""           
20201205131361055000000000063045600000000725009                              017945070    
20201205131311042400000000052779700000002000014                              ""           
20201205131311054100000000009218600000020000001                              ""           
20201205131311055100000000053688900000002000006                              ""           
20201205131311016300000000004796200000000500032                              498573822    
20201205131311471900000000036749500000000500015                              ""           
20201205131311054100000000009217200000000700001                              ""           
20201205131312023499900000079052900000030000001                              ""           
20201205131311034700000000043324400000010000015                              ""           
20201205131311975000000000046119900000002000001                              ""           
20201205131311056600000000074116700000001000001                                           
20201205131311460300000000028213800000000210015                              ""           
20201205131461055200000000098394700000002455008                              037147061    
20201205131481085900000000084044400000002500001                              Evento Teleto
20201205131411045800000000013124800000001000015                              ""           
20201205131411036900000000088589500000004000001                              ""           
20201205131411462900000000002232200000001000015                              ""           
20201205131411028700000000095779300000003000001                              ""           
20201205131411462900000000002232700000001000015                              ""           
20201205131461050600000000057557200000008496015                              073070028    
20201205131461083900000000043670900000002590015                              CUMBRES INTER
20201205131411462900000000002233200000001000015                              ""           
20201205131411019600000000007419500000000200001                              ""           
20201205131411016300000000004796700000001000032                              498573822    
20201205131461656600000000091233900000001480011                              057970070    
20201205131411035800000000062811000000003000027                              ""           
20201205131411462900000000002233700000001000015                              ""           
20201205131413023499900000079053400000030000001                              ""           
20201205131491051900000000012314800000001500001                              PEDRO SAN DIE
20201205131411045800000000013121800000001000015                              ""           
20201205131461431300000000092664300000011637030                              044960076    
20201205131411033300000000008371200000002000001                              ""           
20201205131411041600000000018335900000003000014                              ""           
20201205131411656100000000039151900000002000015                              ""           
20201205131411027600000000082560700000000500014                              ""           
20201205131461021600000000037098800000000020028                              021103044    
20201205131411462900000000002218800000001000015                              ""           
20201205131411070800000000080414700000003000014                              ""           
20201205131411077400000000025381800000002000003                              ""           
20201205131411411800000000038432500000006000015                              ""           
20201205131561467700000000000898500000005270011                              057900079    
20201205131591087000000000018932000000030000001                              MANUEL MIGUEL
20201205131511429100000000019606900000002000014                              ""           
20201205131561052800000000047367000000004375015                              073282085    
20201205131581085900000000084132400000005000001                              Evento Teleto
20201205131514085999900000084139900000010000001                              DONATIVO     
20201205131511085600000000088031200000002000001                              ""           
20201205131511097400000000044982600000001000030                              ""           
20201205131561741800000000070422200000016970008                              036760004    
20201205131561750800000000070141100000003040006                              035621034    
20201205131511017800000000090375400000021000024                              ""           
20201205131511058400000000054927100000002900004                              ""           
20201205131511077400000000025382300000003000003                              ""           
20201205131511010300000000067202500000001000030                              ""           
20201205131561080700000000000458800000000780016                              065897033    
20201205131511013300000000005669200000000500018                                           
20201205131561021600000000037099300000000235028                              021108083    
20201205131511406400000000021962000000000155026                              ""           
20201205131511004000000000033816600000002000022                              ""           
20201205131514026699900000072585100000012000001                                           
20201205131511011000000000054842400000008400014                              ""           
20201205131591523800000000086242300000000120001                              Evento Teleto
20201205131511051800000000034349500000005000001                              ""           
20201205131561009800000000052834400000000610006                              025382012    
20201205131661055200000000098386800000000900008                              037152090    
20201205131661098500000000080121000000013080013                              073625074    
20201205131661080700000000000459300000001150016                              066587015    
20201205131611445400000000008443200000003000029                              ""           
20201205131611406400000000021962500000000200026                              ""           
20201205131611418300000000086341000000002000001                              ""           
20201205131611057000000000017285100000001000011                              ""           
20201205131611016300000000004797200000001000032                              498573822    
20201205131611005200000000039600800000001000011                              ""           
20201205131661080700000000000459800000000020016                              065914044    
20201205131611486200000000058569700000000392001                              ""           
20201205131624051929300000000042700000003000001                                           
20201205131611416000000000009596900000010000021                                           
20201205131611013300000000005669700000004000018                                           
20201205131611045800000000013132200000002000015                              ""           
20201205131614001699900000093684900000002000015                              AZUCENA SALIN
20201205131611409000000000002021100000002000015                              ""           
20201205131611406400000000021963000000001000026                              ""           
20201205131671046400000000043558600000005700014                              049504026    
20201205131661457700000000031828600000005000015                              498573822    
20201205131661080700000000000460300000000630016                              065915013    
20201205131611002400000000016131700000003500014                              ""           
20201205131611045800000000013132700000007000015                              ""           
20201205131611031500000000071647700000000500014                              ""           
20201205131611024600000000099125100000000500001                              ""           
20201205131661003800000000047898100000003251022                              077502075    
20201205131611447300000000010114000000000200014                              ""           
20201205131611017900000000057113600000003650008                              ""           
20201205131611036200000000086284600000003000027                              ""           
20201205131661080700000000000445900000000045016                              065865085    
20201205131611442400000000029816200000006000028                              ""           
20201205131611433900000000071708300000001000001                              ""           
20201205131611960400000000078714500000000500014                              ""           
20201205131671443200000000053015000000001500001                                           
20201205131661744500000000098573700000006305023                              007821098    
20201205131661097600000000064725700000004570015                              092641028    
20201205131661457700000000031829100000005000015                              498573822    
20201205131711031300000000007289500000000500011                              ""           
20201205131711001400000000034182400000000750014                              ""           
20201205131711407800000000020635900000000305014                                           
20201205131711406400000000021963500000005000026                              ""           
20201205131761080700000000000460800000000130016                              065855017    
20201205131711011000000000054842900000000500014                              ""           
20201205131711741800000000070419300000000200008                              ""           
20201205131711076500000000000038300000001000015                              ""           
20201205131771443200000000053015500000001500001                                           
20201205131711005200000000039601300000000600011                              ""           
20201205131711054100000000009219100000000500001                              ""           
20201205131711883100000000025755600000000500008                              ""           
20201205131714001699900000093685400000001000015                              CLARA SALINAS
20201205131761080700000000000443500000000525016                              065899068    
20201205131761030200000000095930100000005000011                              059188036    
20201205131711024600000000099125600000000500001                              ""           
20201205131761021600000000037090900000001040028                              021124052    
20201205131711013100000000018575400000002000015                              ""           
20201205131761798800000000048264800000006630001                              092470018    
20201205131711033200000000068913300000001000030                              ""           
20201205131761045500000000094802900000006000013                              073673088    
20201205131711031700000000000367600000005440012                              ""           
20201205131761080700000000000446400000000280016                              065900003    
20201205131711446400000000064355400000002200013                              ""           
20201205131711418300000000086341500000005000001                              ""           
20201205131711076500000000000038800000000500015                              ""           
20201205131761003800000000047887200000014505022                              076808033    
20201205131711741800000000070422700000000200008                              ""           
20201205131761467700000000000892100000001340011                              059235057    
20201205131711471900000000036750000000003000015                              ""           
20201205131711048200000000073394900000005000015                              ""           
20201205131711406400000000021964000000001300026                              ""           
20201205131761449500000000046035100000000745011                              059509048    
20201205131711036800000000058432800000002000016                              ""           
20201205131761431300000000092664800000015175030                              045022027    
20201205131714001699900000093685900000000500015                              SERAFINA AVEN
20201205131711039500000000040406300000020000001                              ""           
20201205131761744000000000015430900000002260023                              008148062    
20201205131714027029000000014274200000007500001                                           
20201205131711052800000000047367500000002000015                              ""           
20201205131711000800000000005556800000010000026                              ""           
20201205131811439200000000021322200000000100012                              ""           
20201205131861073100000000094755500000014522022                              077655008    
20201205131814085999900000084366400000001000001                              Teleton      
20201205131811446400000000064355900000001000013                              ""           
20201205131861021600000000037099800000000255028                              021100040    
20201205131811076500000000000039300000001000015                              ""           
20201205131811033100000000017305600000001000030                              ""           
20201205131861003100000000000896800000002038221                              069072063    
20201205131811003800000000047885200000010000022                              ""           
20201205131811015900000000031837300000000200021                              ""           
20201205131814001699900000093686400000001700015                              MARIA LUISA S
20201205131811028900000000023014000000000500022                              ""           
20201205131811440300000000064122000000000700015                              ""           
20201205131861024300000000024120300000003000015                              083486092    
20201205131811020500000000024849800000004000001                              ""           
20201205131871089000000000040861500000001180023                              3684821388   
20201205131811447300000000010114500000000200014                              PECD961204FH1
20201205131811744500000000098574200000000200023                              ""           
20201205131811446400000000064356400000001000013                              ""           
20201205131811025500000000007998600000001000014                              ""           
20201205131861489700000000042655500000003310002                              051233077    
20201205131811051600000000022672700000003000001                              ""           
20201205131811073100000000094756000000005000022                              ""           
20201205131811418300000000086342000000004000001                              ""           
20201205131811096200000000032058900000015000004                              ""           
20201205131811003800000000047898600000003000022                              ""           
20201205131811033500000000053821500000005000011                              ""           
20201205131811446400000000064356900000001000013                              ""           
20201205131861072900000000066791900000000305022                              077427079    
20201205131861003100000000000902200000002038221                              069080096    
20201205131811016200000000063933100000001000013                              ""           
20201205131811438200000000063560200000002000027                              ""           
20201205131811437500000000028211300000012041013                              ""           
20201205131911011500000000084370300000003000001                              ""           
20201205131911025600000000012747900000006493015                              ""           
20201205131911033500000000053822000000004000011                              ""           
20201205131911052700000000043931000000000230015                              ""           
20201205131961467700000000000866800000012420011                              059327098    
20201205131911417200000000002303700000001000025                              ""           
20201205131961750800000000070154500000001530006                              035905093    
20201205131911022800000000096380800000000100021                              ""           
20201205131911442400000000029816700000000500028                              ""           
20201205131911055200000000098395200000001000008                              ""           
20201205131961030200000000095930600000002150011                              059185032    
20201205131911033500000000053822500000001000011                              ""           
20201205131911467900000000001783900000066140014                              ""           
20201205131911045500000000094803400000005000013                              ""           
20201205131981085900000000084487600000001000001                              Evento Teleto
20201205131911437500000000028209400000005000013                              ""           
20201205131911099400000000086202400000001000001                                           
20201205131911041400000000051754600000001000001                                           
20201205131911053600000000022101900000002000015                              ""           
20201205131961003100000000000902700000002038221                              069082034    
20201205131911038400000000085156600000002000001                              ""           
20201205131911040900000000007882900000005000018                              ""           
20201205131961008500000000064200200000007442006                              035557075    
20201205131911028600000000052773300000000600025                              ""           
20201205131911000900000000075961000000001000026                              ""           
20201205131961070300000000089971100000010000015                              092452014    
20201205131911015100000000097787000000002000023                              ""           
20201205131911069100000000020206900000001000024                              ""           
20201205131911055200000000098395700000000500008                              ""           
20201205132061080700000000000461300000012160016                              066144025    
20201205132061015500000000087351400000021360009                              017285018    
20201205132061055000000000063046600000021950009                              017942066    
20201205132011411800000000038433000000005000015                              ""           
20201205132011040200000000048511700000002000026                              ""           
20201205132011065000000000095762900000003000001                              ""           
20201205132011489700000000042656000000003000002                              ""           
20201205132061431300000000092665300000005215030                              046251003    
20201205132011010200000000038143900000001000002                              ""           
20201205132011016900000000031303500000001000030                              N/A          
20201205132011032300000000069914500000000200027                              ""           
20201205132011488200000000005626600000002000025                              ""           
20201205132061030200000000095931100000002000011                              059186098    
20201205132011024300000000024120800000001640015                              ""           
20201205132014879215200000016161600000005000019                                           
20201205132061024300000000024121300000003000015                              083485026    
20201205132061003100000000000903200000002038221                              069071094    
20201205132011028900000000023014500000001000022                              ""           
20201205132011488200000000005627100000000500025                              ""           
20201205132011486200000000058570200000015000001                              ""           
20201205132061042600000000025975000000004905016                              066098070    
20201205132011000900000000075961500000001000026                              ""           
20201205132024051939800000000042800000020000001                                           
20201205132091051900000000012570300000015000001                              JOSE MANUEL C
20201205132011408700000000086460000000002000001                              ""           
20201205132011022500000000012988600000001000014                              ""           
20201205132011016600000000009945100000007000032                                           
20201205132061963900000000081123800000007000013                              092422004    
20201205132011437500000000028211800000007000013                              ""           
20201205132061741800000000070423200000001720008                              036786051    
20201205132011434400000000075530200000001200015                              ""           
20201205132061003100000000000903700000002038221                              069079040    
20201205132011022500000000012989100000001000014                              ""           
20201205132011033300000000008377100000000561001                              ""           
20201205132011031500000000071648200000001500014                              ""           
20201205132011012700000000038117600000000300024                              ""           
20201205132011043500000000053652600000000500016                              ""           
20201205132011489700000000042656500000000700002                              ""           
20201205132011000900000000075962000000001000026                              ""           
20201205132111750800000000070141200000001000006                              ""           
20201205132111015900000000031837800000000500021                              ""           
20201205132111489700000000042657000000000500002                              ""           
20201205132161080700000000000461800000000060016                              065864019    
20201205132111050500000000023320800000002000015                              ""           
20201205132112427299900000097797800000005000001                              ""           
20201205132161021600000000037095400000000555028                              021116019    
20201205132124051969900000000042900000003000001                                           
20201205132111093600000000020337600000001200014                              ""           
20201205132161003100000000000900800000002038221                              069083003    
20201205132161080700000000000462300000000580016                              065903007    
20201205132111060700000000018975000000002000032                              ""           
20201205132111043300000000033645700000010000014                              ""           
20201205132161031000000000037213600000011510011                              076954086    
20201205132161080700000000000462800000000220016                              065842042    
20201205132111417200000000002304200000002000025                              ""           
20201205132111096100000000001301700000005000014                              ""           
20201205132161061700000000058682000000012000015                              092598077    
20201205132111460300000000028214300000002000015                              ""           
20201205132111043500000000053653100000002000016                              ""           
20201205132112427299900000097798300000005000001                              ""           
20201205132111025300000000050279600000010000014                              ""           
20201205132111819900000000049958200000002000011                              ""           
20201205132111053100000000070201100000000500015                              ""           
20201205132161080700000000000463300000000300016                              065860046    
20201205132111755400000000095244500000002000001                              ""           
20201205132161003100000000000888400000002038221                              069084069    
20201205132111799800000000089873900000002000030                              ""           
20201205132111012000000000094589900000002000020                              ""           
20201205132111001000000000087848200000002000025                              ""           
20201205132111050500000000023321300000002000015                              ""           
20201205132111401700000000093723200000005000030                              ""           
20201205132111001400000000034182900000001000014                              ""           
20201205132161080700000000000463800000000080016                              065916079    
20201205132111025500000000007999100000000500014                              ""           
20201205132161096200000000032059400000001000004                              016540045    
20201205132111053200000000020371700000001000001                              ""           
20201205132211079800000000034607300000000500015                                           
20201205132261024300000000024121800000001640015                              083712059    
20201205132211031000000000037214100000002000011                              ""           
20201205132212427299900000097798800000003000001                              ""           
20201205132261080700000000000457400000000140016                              066586046    
20201205132211045800000000013133200000000629015                              ""           
20201205132211012700000000038118100000000500024                              ""           
20201205132211093600000000020337200000006000014                              CAAJ7212256I1
20201205132261003100000000000904200000002038221                              069070028    
20201205132211013100000000018574900000005000015                              ""           
20201205132261005400000000070462900000006116021                              2187811339   
20201205132211882900000000028544600000002000014                              ""           
20201205132261449500000000046035600000005455011                              059512042    
20201205132211440300000000064122500000002000015                              ""           
20201205132211017600000000013015800000000400012                              ""           
20201205132224051923000000000043000000010000001                                           
20201205132261080700000000000464300000000450016                              065851044    
20201205132211027700000000049702800000001550021                              ""           
20201205132212427299900000097789400000003000001                              ""           
20201205132211042600000000025975500000000400016                              ""           
20201205132211741600000000040394700000015000021                              ""           
20201205132211754900000000046363400000002000001                                           
20201205132261467700000000000899000000008545011                              059325063    
20201205132211097600000000064726200000000500015                              ""           
20201205132261080700000000000464800000000190016                              065867023    
20201205132261003100000000000904700000002038221                              069067034    
20201205132261021600000000037100300000000250028                              021097070    
20201205132211001000000000087848700000001000025                              ""           
20201205132211429800000000076953300000002500022                              ""           
20201205132261055000000000063047100000002275009                              017943035    
20201205132211056100000000006643300000002000011                              ""           
20201205132212427299900000097799300000001500001                              ""           
20201205132261080700000000000465300000001345016                              065846015    
20201205132211055300000000044564600000001000029                              ""           
20201205132211467900000000001797300000000250014                              ""           
20201205132211467900000000001812900000000260014                              ""           
20201205132361406400000000021964500000006925026                              003861058    
20201205132314085999900000084774600000010000001                              DONATIVO     
20201205132361080700000000000465800000001830016                              066124083    
20201205132311055300000000044565100000001000029                              ""           
20201205132311741600000000040395200000003000021                              ""           
20201205132311097600000000064726700000000500015                              ""           
20201205132361008500000000064200700000011000006                              035351016    
20201205132361003100000000000898800000002038221                              069073032    
20201205132311034800000000014409300000006500019                              ""           
20201205132311037300000000029734400000001620014                              ""           
20201205132381085900000000084792700000002000001                              Evento Teleto
20201205132311056100000000006643800000002000011                              ""           
20201205132361080700000000000446500000000400016                              065911040    
20201205132311055000000000063047600000010000009                              ""           
20201205132361449500000000046036100000000720011                              059389056    
20201205132311598700000000097038700000000500015                                           
20201205132311474900000000051439100000001000001                              ""           
20201205132311053200000000020372200000000700001                              ""           
20201205132361024300000000024117900000001100015                              083711090    
20201205132311023800000000017566800000000010030                              ""           
20201205132361080700000000000454400000004500016                              065852013    
20201205132311001300000000078280700000004000003                              ""           
20201205132311427400000000080173400000002000015                              VALENTINA    
20201205132361003100000000000905200000002038221                              069069069    
20201205132311422600000000052843100000002000018                              ""           
20201205132311001200000000066258000000002000013                              ""           
20201205132311725900000000050714700000005000001                              ""           
20201205132361750800000000070157900000002050006                              035690056    
20201205132311741600000000040395700000015000021                              ""           
20201205132311053400000000095357800000001000001                              ""           
20201205132311422600000000052843600000002000018                              ""           
20201205132311004000000000033817100000000500022                              ""           
20201205132361045700000000023160700000001275001                              092358045    
20201205132311085600000000088029300000005000001                              ""           
20201205132311405600000000089513200000001000011                              ""           
20201205132361431300000000092665800000006775030                              045426005    
20201205132311465000000000098674300000001000015                              ""           
20201205132414466789600000003962300000002000011                                           
20201205132411408200000000008784000000010000001                              ""           
20201205132411032000000000063700600000011900025                              ""           
20201205132411754900000000046363900000001000001                                           
20201205132461021600000000037100800000000488028                              021102075    
20201205132471052300000000013624100000003620015                              094442005    
20201205132411030600000000050764200000001000027                              ""           
20201205132411021600000000037101300000000050028                              ""           
20201205132461008500000000064201200000010000006                              035350047    
20201205132411050200000000014858800000002000015                              ""           
20201205132411426600000000080454700000001000001                              ""           
20201205132411436100000000025057400000002000004                              ""           
20201205132461410100000000061025000000021607015                              092625059    
20201205132411466700000000003962800000001000011                              ""           
20201205132411016900000000031300100000001000030                              N/A          
20201205132414043526900000053653600000005000016                                           
20201205132411819900000000049958600000000260011                              ""           
20201205132411040200000000048512200000002000026                              ""           
20201205132411466900000000061871000000002000015                              ""           
20201205132411027000000000014274700000000200001                              ""           
20201205132411446400000000064349000000002000013                              ""           
20201205132411070100000000063343500000003000001                              ""           
20201205132411003100000000000893300000001200021                              ""           
20201205132481085900000000084913100000001000001                              Evento Teleto
20201205132461055000000000063048100000000715009                              017944004    
20201205132411744000000000015444800000004062023                              ""           
20201205132411021600000000037101800000000050028                              ""           
20201205132511413700000000022373300000000600014                              ""           
20201205132511020500000000024850300000001000001                              ""           
20201205132525051916800000000043100000035000001                                           
20201205132511435900000000038053300000003000003                              ""           
20201205132561457700000000031829600000000610015                              498573822    
20201205132511426600000000080455200000001000001                              ""           
20201205132511050200000000014859300000002000015                              ""           
20201205132511016900000000031304000000000500030                              N/A          
20201205132511903300000000039858600000001000031                              ""           
20201205132561094900000000029925800000012671013                              073344019    
20201205132511037300000000029734900000000500014                              ""           
20201205132511029000000000091064400000005000011                              ""           
20201205132511026200000000087888200000025000011                              ""           
20201205132511401700000000093723700000000116030                              ""           
20201205132511050600000000057557700000003000015                                           
20201205132511032300000000069922400000002000027                              ""           
20201205132591087000000000019609300000003000001                              VICTOR SANCHE
20201205132511096400000000010420800000005000003                              ""           
20201205132561008500000000064201700000010000006                              035348022    
20201205132561467700000000000899500000013210011                              059334065    
20201205132511434900000000077421400000000500015                              ""           
20201205132561010400000000022513100000010240011                              077658012    
20201205132561457700000000031830100000000500015                              498573822    
20201205132511050600000000057552800000002000015                                           
20201205132561462900000000002222300000005755015                              094134041    
20201205132511027400000000070540600000005000014                              ""           
20201205132511016900000000031304500000000500030                              N/           
20201205132511025500000000007999600000001000014                              ""           
20201205132561431300000000092666300000000430030                              046440017    
20201205132561462900000000002234200000005590015                              094211072    
20201205132561045500000000094796500000006515013                              073672022    
20201205132561080700000000000466300000000015016                              065838079    
20201205132561744200000000016312200000001940023                              8288020      
20201205132511427400000000080173900000002000015                              ""           
20201205132611025500000000008000100000001500014                              ""           
20201205132611441300000000098047200000000500031                              ""           
20201205132611069100000000020207400000000500024                              ""           
20201205132661080700000000000466800000000135016                              065875056    
20201205132611047500000000021161700000002000011                              ""           
20201205132661008500000000064202200000010000006                              035349088    
20201205132625051970400000000043200000005000001                                           
20201205132611064300000000073686900000002000023                              HEGP580630277
20201205132661055000000000063048600000000930009                              017941097    
20201205132661457700000000031830600000000500015                              498573822    
20201205132661042600000000025976000000009105016                              066103075    
20201205132624051967600000000043300000003000001                                           
20201205132661462900000000002234700000004950015                              094207012    
20201205132661080700000000000467300000000590016                              065854048    
20201205132661098500000000080121500000007984013                              073430052    
20201205132611098100000000008166700000002000015                              ""           
20201205132611466900000000061862600000001000015                              ""           
20201205132611046400000000043559100000002000014                              ""           
20201205132611427400000000080174400000002000015                              ""           
20201205132611441300000000098047700000000500031                              ""           
20201205132614014799900000042982400000008120022                              077158030    
20201205132611088500000000048065000000004000002                              ""           
20201205132611053100000000070201600000003600015                              ""           
20201205132611022400000000076506900000020000001                              ""           
20201205132611440300000000064123000000001000015                              ""           
20201205132661080700000000000467800000000170016                              065833040    
20201205132612427299900000097799800000004640001                              ""           
20201205132611037300000000029735400000005000014                              ""           
20201205132614084609600000034370500000002000015                                           
20201205132661096200000000032056000000004500004                              014197007    
20201205132611412000000000093432900000005000015                              ""           
20201205132611447800000000092220200000002000028                              ""           
20201205132611069100000000020207900000002000024                              ""           
20201205132661080700000000000445400000000420016                              065876025    
20201205132611023900000000062963200000002500030                              ""           
20201205132661008500000000064202700000010000006                              035352082    
20201205132611486500000000028106700000001000021                              ""           
20201205132661457700000000031831100000000500015                              498573822    
20201205132611050500000000023311400000000400015                              ""           
20201205132661080700000000000468300000000170016                              065834009    
20201205132661437500000000028212300000009475013                              073074098    
20201205132611427400000000080174900000001000015                              ""           
20201205132611069100000000020208400000000500024                              ""           
20201205132611405300000000072071000000000500002                              ""           
20201205132711741600000000040396200000010000021                              ""           
20201205132761744200000000016275900000008230023                              8213087      
20201205132761080700000000000468800000000250016                              065868089    
20201205132711016800000000096686400000001000016                              ""           
20201205132711798900000000089666400000002000015                              ""           
20201205132711053100000000070202100000001000015                              ""           
20201205132711071800000000082477200000005000001                              ""           
20201205132761431300000000092655900000008500030                              044962014    
20201205132711028900000000023015000000005980022                              ""           
20201205132761031000000000037211700000010005011                              076951082    
20201205132711051300000000009197900000000500015                              ""           
20201205132711016800000000096686900000001000016                              ""           
20201205132711016700000000026427900000001500026                              ""           
20201205132761080700000000000443600000000310016                              065880085    
20201205132761005400000000070463400000011797021                              2187641395   
20201205132711028300000000045083000000003500001                              ""           
20201205132711022400000000076507400000006000001                              ""           
20201205132761091800000000032528500000006175015                              094052068    
20201205132761744200000000016289300000006547023                              7555053      
20201205132711016800000000096687400000001000016                              ""           
20201205132711010800000000071118900000001000009                              ""           
20201205132711023900000000062963700000001000030                              ""           
20201205132761467700000000000900000000003045011                              059300082    
20201205132761052100000000058128600000010830015                              094458081    
20201205132761006500000000076695600000000370001                              085237020    
20201205132761462900000000002235200000041845015                              099856053    
20201205132711040000000000059635700000001020014                                           
20201205132711016000000000046889100000001000001                              ""           
20201205132781085900000000085136600000000500001                              Evento Teleto
20201205132761744200000000016304800000000240023                              7553018      
20201205132711017800000000090375900000002300024                              ""           
20201205132713417999900000081002400001000000026                              SETL470126616
20201205132711034700000000043324900000002000015                              ""           
20201205132711447800000000092217300000000500028                              ""           
20201205132711098400000000048277900000002000014                              ""           
20201205132711021200000000061126200000000150001                              ""           
20201205132711054700000000077063100000000500022                              ""           
20201205132711023800000000017567300000000500030                              ""           
20201205132711051300000000009198400000000300015                              ""           
20201205132761744200000000016313200000003800023                              8291014      
20201205132711050600000000057558200000003000015                                           
20201205132711008500000000064203200000004250006                              ""           
20201205132761080700000000000469300000000030016                              065866054    
20201205132811091800000000032529000000000500015                              ""           
20201205132811741600000000040396700000010000021                              ""           
20201205132861744200000000016308300000007375023                              8212021      
20201205132881085900000000085187500000001000001                              Evento Teleto
20201205132861042600000000025976500000010305016                              066106079    
20201205132811016400000000091460400000004000011                              ""           
20201205132814085999900000085198100000010000001                              DONATIVO     
20201205132811025300000000050280100000002000014                              ""           
20201205132861080700000000000457900000000950016                              065853079    
20201205132811016400000000091460900000001000011                              ""           
20201205132811030200000000095931600000001000011                              ""           
20201205132811427400000000080175400000000200015                              SOFIA        
20201205132861744200000000016274300000005480023                              7793050      
20201205132861437600000000056386400000026610011                              057806013    
20201205132811741600000000040397200000015000021                              ""           
20201205132811055300000000044565600000001000029                              ""           
20201205132861080700000000000469800000000050016                              065850075    
20201205132861096200000000032059900000004020004                              014200074    
20201205132811098100000000008167200000000500015                              ""           
20201205132861656100000000039152400000001025015                              073048061    
20201205132861010400000000022513600000020125011                              077421071    
20201205132811032900000000024426200000002500001                              ""           
20201205132861051500000000096772500000042333001                              089405047    
20201205132811975000000000046120400000003310001                              ""           
20201205132811019200000000044023000000001000014                              ""           
20201205132811444000000000008000300000000500015                              ""           
20201205132811098600000000005575600000000500015                              ""           
20201205132811418200000000063875300000005000015                              ""           
20201205132811049100000000096252000000002000001                              ""           
20201205132861744200000000016291400000008360023                              8114079      
20201205132811028900000000023015500000000400022                              ""           
20201205132811025300000000050280600000002000014                              ""           
20201205132811741600000000040397700000003000021                              ""           
20201205132911015600000000040538400000001000010                              ""           
20201205132911713100000000041698800000000500014                              ""           
20201205132961744200000000016288300000005050023                              7446074      
20201205132914028329700000045084400000005000001                                           
20201205132911021000000000064158400000002000026                              ""           
20201205132961715300000000033683200000010000015                              083520041    
20201205132961008500000000064203700000038000006                              035539071    
20201205132961457700000000031831600000005230015                              498573822    
20201205132911025300000000050281100000001000014                              ""           
20201205132911451800000000059339100000001500001                              ""           
20201205132961750800000000070158400000020025006                              035563073    
20201205132911013100000000018576800000001500015                              ""           
20201205132911093800000000096144500000000150030                              ""           
20201205132911001200000000066258500000000500013                              ""           
20201205132961744200000000016299300000003065023                              8390022      
20201205132911016600000000009945600000000500032                                           
20201205132911094400000000048122800000002000007                              ""           
20201205132911049100000000096252500000001200001                              ""           
20201205132961431300000000092666800000002075030                              045299046    
20201205132911657700000000087381300000000200021                              ""           
20201205132911034700000000043325400000001000015                              ""           
20201205132961081700000000070733500000000560021                              071096016    
20201205132961656100000000039152900000001050015                              073046026    
20201205132911434200000000082050800000002500001                                           
20201205132911444000000000007999900000000500015                              ""           
20201205132911020500000000024850800000008490001                              ""           
20201205132911449500000000046036600000002000011                              ""           
20201205132911098600000000005576100000000500015                              ""           
20201205132911065000000000095763400000005000001                              ""           
20201205132911028000000000035219700000000150027                              ""           
20201205132911818700000000039596800000011407001                              ""           
20201205132961744200000000016311800000005057023                              8347047      
20201205132961462900000000002220300000005625015                              094209047    
20201205132911447800000000092220700000000490028                              ""           
20201205132961080700000000000458900000000590016                              065850075    
20201205132961008500000000064204200000005110006                              035614067    
20201205132914099649100000073546600000008000011                                           
20201205132911055100000000053689400000003000006                              ""           
20201205132911021300000000048043100000006700030                              ""           
20201205132961429800000000076953800000003025022                              214308863    
20201205133061462900000000002222800000006715015                              094210006    
20201205133014085999900000085327800000001000001                              Apoyo Teleton
20201205133011657700000000087381800000000500021                              ""           
20201205133011044700000000003179200000001000016                              ""           
20201205133011033300000000008377600000005000001                              ""           
20201205133011034700000000043325900000001500015                              ""           
20201205133011037100000000046202300000002000015                              ""           
20201205133061744200000000016313700000018800023                              8093095      
