20201205120011451800000000059343000000000200001                              ""           
20201205120011031700000000000362800000002000012                              ""           
20201205120011009800000000052827900000003000006                              ""           
20201205120011046400000000043554600000002000014                              ""           
20201205120061467900000000001804800000026380014                              049879084    
20201205120011069800000000090074800000001000001                              ""           
20201205120011033300000000008373600000000500001                              ""           
20201205120012038399900000084552600000000600024                                           
20201205120011440900000000047036900000000500015                                           
20201205120011001000000000087845700000006500025                              ""           
20201205120011012200000000039616800000000500013                              ""           
20201205120011022200000000011176900000002000027                              ""           
20201205120011980400000000005225100000001000001                              ""           
20201205120011058400000000054926100000000600004                                           
20201205120044087099900000014061000000007000001ERNESTO TLAPANCO/VILLALPANDO               
20201205120011016200000000063928600000001000013                              ""           
20201205120061030200000000095925600000001135011                              057507051    
20201205120011017400000000001525700000001500018                              ""           
20201205120011434400000000075525700000001200015                              ""           
20201205120011082400000000028761400000002500015                              ""           
20201205120014014799900000042977400000000500022                              CITLALLI SUCH
20201205120061030200000000095926100000007115011                              057521082    
20201205120011012100000000080371900000003000030                              ""           
20201205120061750800000000070145900000001180006                              035661015    
20201205120013051699900000022668700000050000001                              ""           
20201205120011040900000000007880900000002000018                              ""           
20201205120011053600000000022098900000001000015                              ""           
20201205120061467900000000001809200000031980014                              049917006    
20201205120011009800000000052828400000003000006                              ""           
20201205120025051924600000000024000000005000001                                           
20201205120111486200000000058566200000000500001                              ""           
20201205120111006700000000048930200000005000014                              ""           
20201205120111006400000000058681700000000500024                              ""           
20201205120111462300000000033115500000000200005                              ""           
20201205120161028900000000023008500000039197022                              077311026    
20201205120111903300000000039857100000001000031                              ""           
20201205120111468600000000047771600000002000001                              ""           
20201205120111451800000000059343500000000500001                              ""           
20201205120171060400000000033318800000001330030                              2823621346   
20201205120111015900000000031834300000001000021                              ""           
20201205120111052100000000058126600000000100015                              ""           
20201205120111048700000000099601100000001000013                              ""           
20201205120111026800000000081733300000001500001                              ""           
20201205120111434900000000077418400000001000015                              ""           
20201205120111005300000000074279400000000100021                              ""           
20201205120111023400000000079050400000002000001                              NISJ651016A12
20201205120111040900000000007881400000000500018                              ""           
20201205120111033300000000008374100000002000001                              ""           
20201205120111462900000000002219700000005000015                              ""           
20201205120111027600000000082558700000001400014                              ""           
20201205120161072900000000066789900000013165022                              077160055    
20201205120161046800000000010340500000002020023                              008329043    
20201205120111440900000000047040300000005000015                                           
20201205120161022000000000075487000000002415006                              035550098    
20201205120111021600000000037085300000015000028                              ""           
20201205120119403239900000075505900000006000020                                           
20201205120114014799900000042977900000000200022                              498573822    
20201205120124051992000000000024100000010000001                                           
20201205120261023500000000080154800000000296031                              013625079    
20201205120271034700000000043321900000034600015                              0094792082   
20201205120261467700000000000889500000002890011                              059146020    
20201205120211012900000000048841900000001039028                              ""           
20201205120211409000000000002016500000001000015                              ""           
20201205120261467700000000000873100000002000011                              498573822    
20201205120211434900000000077418900000001000015                              ""           
20201205120211045500000000094798900000000500013                              ""           
20201205120224051929100000000024200000003000001                                           
20201205120224051970500000000024300000025000001                                           
20201205120224051939800000000024400000001000001                                           
20201205120211474600000000035363200000002000001                              ""           
20201205120211028900000000023009000000002000022                              ""           
20201205120211052800000000047359500000002000015                              ""           
20201205120224051909500000000024500000005000001                                           
20201205120211098400000000048276900000000400014                              ""           
20201205120271417900000000080992400000006400026                              004429096    
20201205120261094900000000029920800000012700013                              073187050    
20201205120261045800000000013125700000001520015                              089757062    
20201205120211098500000000080118000000000200013                              ""           
20201205120211012100000000080372400000001000030                              ""           
20201205120211012900000000048842400000001000028                              ""           
20201205120211903300000000039857600000003000031                              ""           
20201205120271417900000000080992900000001100026                              004470036    
20201205120211034500000000070518400000002500014                              ""           
20201205120211021300000000048037600000002000030                              ""           
20201205120281085900000000078407800000000500001                              Evento Teleto
20201205120211798800000000048259800000006000001                              ""           
20201205120214014799900000042978400000001000022                              498573822    
20201205120211019100000000063301700000000500028                              ""           
20201205120211023400000000079050900000015000001                              DIVA7107062D6
20201205120361462900000000002220200000009090015                              099848020    
20201205120311434400000000075526200000004000015                              ""           
20201205120311052800000000047360000000001000015                              ""           
20201205120371417900000000080993400000001870026                              004469077    
20201205120311055100000000053687400000001000006                              ""           
20201205120311051800000000034347000000001500001                              ""           
20201205120311019100000000063302200000000500028                              ""           
20201205120311027600000000082559200000000220014                              ""           
20201205120311467900000000001789300000005000014                              ""           
20201205120361023500000000080155300000011820031                              013570015    
20201205120381085900000000078439000000000489401                              Evento Teleto
20201205120311488200000000005623600000002000025                              ""           
20201205120371417900000000080989000000002700026                              004432090    
20201205120311089400000000066425200000002000025                                           
20201205120311009200000000065216200000000250015                              ""           
20201205120311052700000000043927500000000500015                              ""           
20201205120311488200000000005624100000002000025                              ""           
20201205120311013100000000018574800000000200015                              ""           
20201205120311028200000000056114500000001000004                              ""           
20201205120311054700000000077062100000003000022                              ""           
20201205120361403200000000075506400000006000020                                           
20201205120324051967700000000024600000003000001                                           
20201205120324051919200000000024700000002000001                                           
20201205120311043500000000053650100000003000016                              ""           
20201205120311079800000000034604300000001000015                                           
20201205120311051800000000034347500000001500001                              ""           
20201205120311034500000000070518900000002000014                              ""           
20201205120311096100000000001301200000001000014                              ""           
20201205120311099600000000073545100000000500011                              ""           
20201205120311467900000000001809700000005000014                              ""           
20201205120311442400000000029815700000002000028                              ""           
20201205120311061700000000058677000000001930015                              ""           
20201205120371417900000000080993900000003000026                              004431024    
20201205120311460300000000028208800000000500015                              ""           
20201205120311023500000000080155800000001000031                              ""           
20201205120325051944200000000024800000003000001                                           
20201205120361403200000000075506900000006000020                                           
20201205120311089100000000073116800000005000014                              ""           
20201205120311021300000000048038100000000500030                              ""           
20201205120461403200000000075507400000006000020                                           
20201205120471417900000000080984000000001850026                              004436063    
20201205120424051973200000000024900000025000001                                           
20201205120411467900000000001810200000003000014                              ""           
20201205120424051940200000000025000000002000001                                           
20201205120461403200000000075507900000006000020                                           
20201205120471417900000000080994400000000740026                              004425026    
20201205120411053600000000022099400000020000015                              ""           
20201205120461403200000000075508400000006000020                                           
20201205120411052700000000043928000000001000015                              ""           
20201205120411014600000000058565700000005000028                              ""           
20201205120411016600000000009943100000024480032                                           
20201205120411042900000000094748100000001800016                              ""           
20201205120424051976900000000025100000001000001                                           
20201205120481085900000000078528300000002000001                              Evento Teleto
20201205120461403200000000075508900000006000020                                           
20201205120425051960900000000025200000010000001                                           
20201205120461030200000000095926600000006520011                              059158026    
20201205120411027600000000082559700000003000014                              ""           
20201205120411021300000000048033200000000500030                              ""           
20201205120425051934700000000025300000010000001                                           
20201205120411467900000000001793800000003000014                              ""           
20201205120461467700000000000890000000005045011                              059141078    
20201205120411091800000000032526000000002000015                              ""           
20201205120411009800000000052828000000030000006                              ""           
20201205120411026000000000042993300000001500001                              ""           
20201205120411450300000000041145800000000500013                              ""           
20201205120511010100000000084036400000002000030                              ""           
20201205120525051992600000000025400000031000001                                           
20201205120511052700000000043928500000001000015                              ""           
20201205120571036900000000088584000000007650001                              2584161360   
20201205120511001600000000093684400000003000015                              ""           
20201205120581085900000000078579300000009000001                              Evento Teleto
20201205120511061100000000066446000000001000030                              ""           
20201205120591087000000000014364800000010000001                              LUCILA ARELLA
20201205120511467900000000001810700000003000014                              ""           
20201205120524051905800000000025500000005000001                                           
20201205120524051985600000000025600000005000001                                           
20201205120511010200000000038146300000001000002                              ""           
20201205120524051939100000000025700000003000001                                           
20201205120561750800000000070146400000004140006                              035689097    
20201205120524051998800000000025800000005000001                                           
20201205120511467900000000001808300000003000014                              ""           
20201205120561489700000000001945600000009700002                              050575043    
20201205120511044900000000036842800000000200014                              ""           
20201205120511021300000000048038600000000500030                              ""           
20201205120511017900000000057110100000010000008                              ""           
20201205120514085999900000078618900000030000001                              donativo     
20201205120511085600000000088029200000033100001                              ""           
20201205120571014600000000058566200000004475028                              16175529     
20201205120511032000000000063700100000000300025                              ""           
20201205120525051930400000000025900000010000001                                           
20201205120624051916400000000026000000006000001                                           
20201205120611403200000000075509400000000500020                              ""           
20201205120611033500000000053819000000000500011                              ""           
20201205120611467900000000001811200000002000014                              ""           
20201205120611010200000000038145400000001000002                              ""           
20201205120611079600000000015752200000000700019                              ""           
20201205120681085900000000078657900000001000001                              Evento Teleto
20201205120611716300000000015167600000005000015                              ""           
20201205120681085900000000078666600000001500001                              Evento Teleto
20201205120611053400000000095355300000000500001                              ""           
20201205120611025300000000050276200000000300014                              ""           
20201205120611019200000000044021000000003000014                              ""           
20201205120611467900000000001811700000001500014                              ""           
20201205120611497700000000094607600000005000001                              ""           
20201205120611433900000000071707300000040000001                              ""           
20201205120611486200000000058566700000003000001                              ""           
20201205120661012200000000039617300000002170013                              073776069    
20201205120611067200000000007206600000000500016                              ""           
20201205120614014799900000042978900000016270022                              076995036    
20201205120661027900000000041071900000017661014                              051327056    
20201205120661462900000000002220700000062400015                              099948094    
20201205120714085999900000078717300000002913201                              Donativo     
20201205120711083900000000043667900000001000015                              ""           
20201205120711029100000000037627000000001000004                              ""           
20201205120711085600000000088029700000012500001                              ""           
20201205120711067200000000007207100000000500016                              ""           
20201205120791087000000000014495900000005000001                              ARMANDO ROCHA
20201205120725051939800000000026100000002000001                                           
20201205120761467700000000000885700000002575011                              059145051    
20201205120711009800000000052828900000002500006                              ""           
20201205120761467700000000000863600000000720011                              498573822    
20201205120724051929700000000026200000000600001                                           
20201205120711091800000000032526500000001000015                              ""           
20201205120761072900000000066785500000010030022                              077324098    
20201205120711076500000000000035800000001000015                              ""           
20201205120711712400000000021914800000002000031                              ""           
20201205120724051959600000000026300000010000001                                           
20201205120761963900000000081120800000006300013                              073589090    
20201205120791051900000000009257900000001000001                              MARIA ELISA I
20201205120711442700000000066509500000001500015                              ""           
20201205120711097400000000044979200000010000030                              ""           
20201205120744051999900000009262400000008000001                              RAQUEL SANDOV
20201205120771417900000000080994900000006440026                              004406053    
20201205120711091800000000032527000000006450015                              ""           
20201205120711435700000000078127500000011400003                              ""           
20201205120781085900000000078763400000001000001                              Evento Teleto
20201205120711067200000000007207600000000500016                              ""           
20201205120711085600000000088030200000020000001                              ""           
20201205120711029100000000037627500000001000004                              ""           
20201205120761028900000000023009500000000140022                              077339011    
20201205120711051400000000098918600000001500001                              ""           
20201205120761872200000000023811600000004664006                              035570040    
20201205120711006500000000076693500000000500001                              ""           
20201205120761021300000000048039100000005385030                              046133022    
20201205120711051600000000022669200000005000001                              ""           
20201205120711033300000000008374600000005000001                              ""           
20201205120781085900000000078780900000001505901                              Evento Teleto
20201205120711441300000000098046200000008000031                              ""           
20201205120771417900000000080990000000001200026                              004423088    
20201205120791051900000000009280200000000500001                              OCTAVIO TRUJI
20201205120781085900000000078789800000001000001                              Evento Teleto
20201205120824051929300000000026400000002000001                                           
20201205120811963900000000081121300000000500013                              ""           
20201205120825051981400000000026500000005000001                                           
20201205120825051932300000000026600000000200001                                           
20201205120811434400000000075526700000000500015                              ""           
20201205120824051910200000000026700000010000001                                           
20201205120881085900000000078807100000002000001                              Evento Teleto
20201205120824051922900000000026800000005000001                                           
20201205120811067200000000007208100000000500016                              ""           
20201205120811091800000000032527500000002000015                              ""           
20201205120881085900000000078813800000003000001                              Evento Teleto
20201205120861022000000000075487500000006210006                              035554071    
20201205120861030200000000095927100000002745011                              059216084    
20201205120861750800000000070146900000001140006                              035358090    
20201205120812056699900000074115700000001000001                                           
20201205120825051971100000000026900000002000001                                           
20201205120811818500000000008870300000001000015                              ""           
20201205120811053600000000022099900000005030015                              ""           
20201205120825051905600000000027000000002000001                                           
20201205120811067200000000007208600000000500016                              ""           
20201205120811050500000000023312300000000500015                              ""           
20201205120811963900000000081121800000001000013                              ""           
20201205120824051931000000000027100000005000001                                           
20201205120881085900000000078850100000004000001                              Evento Teleto
20201205120861099700000000041844800000010000017                              083540080    
20201205120811045800000000013126200000000500015                              ""           
20201205120871036900000000088584500000007750001                              1791071379   
20201205120811052800000000047360500000003000015                              ""           
20201205120811085600000000088030700000070000001                              ""           
20201205120811415300000000091006200000001200015                              ""           
20201205120861980400000000005213700000003950001                              089537069    
20201205120961980400000000005220200000004125001                              08953504     
20201205120911089100000000073117300000002000014                              ""           
20201205120961467700000000000890500000010000011                              498573822    
20201205120924051928900000000027200000005000001                                           
20201205120925051955600000000027300000002000001                                           
20201205120911412000000000093428400000000200015                              ""           
20201205120911068300000000067899600000002500014                              ""           
20201205120911067200000000007209100000000500016                              ""           
20201205120911032500000000091601000000003000016                              ""           
20201205120911462200000000037648800000001000009                              ""           
20201205120911021000000000064157900000000500026                              ""           
20201205120911089800000000019758000000000500032                              ""           
20201205120911053600000000022100400000004200015                              ""           
20201205120911412000000000093428900000000200015                              ""           
20201205120911021600000000037085800000001000028                              ""           
20201205120911050500000000023312800000000600015                              ""           
20201205120911024300000000024116300000005000015                              ""           
20201205120911442700000000066510000000000450015                              ""           
20201205120961094900000000029921300000018876013                              073059098    
20201205120961033500000000053819500000001000011                              059474023    
20201205120911040000000000059634200000010000014                                           
20201205120911067200000000007209600000000500016                              ""           
20201205120911427400000000080171900000000400015                              ""           
20201205120971046800000000010341000000002620023                              16175529     
20201205120961072900000000066790400000028305022                              077653070    
20201205120911016100000000032363200000001000006                              ""           
20201205120961466700000000003961300000001400011                              057556034    
20201205120961448400000000057408600000014420006                              035637013    
20201205120911417300000000020648400000005000003                              ""           
20201205120981085900000000078928200000005000001                              Evento Teleto
20201205120961980400000000005225600000003905001                              085457013    
20201205120961980400000000005226100000005080001                              089536003    
20201205120911012900000000048842900000002000028                              ""           
20201205120911412000000000093429400000000200015                              ""           
20201205120911825400000000086280500000005000022                              ""           
20201205120961023500000000080156300000011080031                              013469079    
20201205121011052800000000047361000000000500015                              ""           
20201205121011067200000000007210100000000500016                              ""           
20201205121061750800000000070147400000001190006                              035806085    
20201205121024051959500000000027400000010000001                                           
20201205121011016900000000031299000000001000030                                           
20201205121011052800000000047361500000000500015                              ""           
20201205121011442700000000066510500000000500015                              ""           
20201205121011409000000000002020900000002000015                              ""           
20201205121011023100000000052576500000000400027                              ""           
20201205121024051984400000000027500000040000001                                           
20201205121011051400000000098919100000015000001                              ""           
20201205121011075000000000080301800000000200001                              ""           
20201205121011061100000000066446500000000200030                              ""           
20201205121061016400000000091457400000003150011                              0058779012   
20201205121024051965000000000027600000010000001                                           
20201205121061012200000000039617800000003215013                              073312071    
20201205121011012100000000080372900000001000030                              ""           
20201205121071451100000000042057100000000380019                              16175529     
20201205121011755000000000024036500000000700001                              ""           
20201205121011016900000000031299500000001000030                                           
20201205121011044600000000062449800000001000016                              ""           
20201205121111053100000000070197600000003500015                              ""           
20201205121114431329900000092660300000002000030                                           
20201205121111010200000000038146800000001000002                              ""           
20201205121111429500000000096791000000001000011                              ""           
20201205121161450300000000041146300000003270013                              073676092    
20201205121111017900000000057110600000002000008                              ""           
20201205121111062400000000033884400000002000014                              ""           
20201205121124051939300000000027700000005000001                                           
20201205121124051939700000000027800000050000001                                           
20201205121111437600000000056385900000001200011                              ""           
20201205121111442700000000066511000000001000015                              ""           
20201205121111975000000000046117900000000500001                              ""           
20201205121111011000000000054840400000002700014                              ""           
20201205121111028900000000023010000000005000022                              ""           
20201205121111460300000000028209300000000050015                              ""           
20201205121111025600000000012744900000002000015                              ""           
20201205121161012000000000094586400000005100020                              0040744035   
20201205121181085900000000079068000000003000001                              Evento Teleto
20201205121111050600000000057553200000010000015                                           
20201205121161467700000000000891000000012845011                              059137018    
20201205121111034600000000068840000000002000001                              ""           
20201205121111429500000000096791500000001000011                              ""           
20201205121111055700000000084734900000010000019                              ""           
20201205121111012200000000039618300000000700013                              ""           
20201205121111819600000000004168600000006000014                              ""           
20201205121111016000000000046887100000000500001                              ""           
20201205121161467900000000001812200000007000014                              050183071    
20201205121111069800000000090075300000035000001                              ""           
20201205121124051933600000000027900000002000001                                           
20201205121111033100000000017301600000050000030                              ""           
20201205121111051300000000009196400000004000015                              ""           
20201205121161039500000000040400300000000940001                              085070070    
20201205121111033300000000008375100000000200001                              ""           
20201205121161091300000000054598100000000855020                              040487089    
20201205121161744000000000015442800000001817023                              007790046    
20201205121211462900000000002221200000005000015                              ""           
20201205121211418300000000086339000000000500001                              ""           
20201205121211818500000000008870800000002000015                              ""           
20201205121261091300000000054598600000001675020                              040488058    
20201205121211050500000000023313300000001500015                              ""           
20201205121261872200000000023812100000004000006                              035258016    
20201205121224051919900000000028000000002000001                                           
20201205121211009800000000052829400000002000006                              ""           
20201205121225051949900000000028100000010000001                                           
20201205121211406200000000025148300000001000003                                           
20201205121211052100000000058127100000012000015                              FLU810408BZ9 
20201205121214462946200000002221700000010000015                                           
20201205121261091300000000054599100000000910020                              040486023    
20201205121211020500000000024848800000005000001                              ""           
20201205121261022000000000075488000000001645006                              035546038    
20201205121211040700000000014619100000003160018                              ""           
20201205121261467900000000001812700000003855014                              049613005    
20201205121211451100000000042057600000001500019                              ""           
20201205121211025600000000012745400000002000015                              ""           
20201205121211093800000000096142500000002500030                              ""           
20201205121224051989900000000028200000003000001                                           
20201205121211411800000000038429500000002500015                              ""           
20201205121211435900000000038052300000001500003                              ""           
20201205121211818500000000008871300000002000015                              ""           
20201205121211081900000000093040800000001000015                              ""           
20201205121211415300000000091006700000004000015                              ""           
20201205121224051905700000000028300000001000001                                           
20201205121211750500000000097543300000002000015                              ""           
20201205121261073500000000069589100000021230021                              071203033    
20201205121261081700000000070732500000003525021                              068972069    
20201205121211453400000000077293400000001000014                              ""           
20201205121361025800000000036495900000009387015                              085309022    
20201205121361448400000000057409100000011445006                              035638079    
20201205121314093539300000075334500000020000028                                           
20201205121311435700000000078128000000002000003                              ""           
20201205121361467900000000001797800000033610014                              050180067    
20201205121311025600000000012745900000001000015                              ""           
20201205121371036900000000088585000000007600001                              2584031373   
20201205121311064400000000020480100000001000021                              ""           
20201205121381085900000000079208400000002000001                              Evento Teleto
20201205121381085900000000079213900000020000001                              Evento Teleto
20201205121311411800000000038430000000002000015                              ""           
20201205121311406200000000025148800000005000003                                           
20201205121311040700000000014619600000000200018                              ""           
20201205121311035800000000062810500000000085027                              ""           
20201205121311405100000000077615800000002000001                              ""           
20201205121311409000000000002021400000001000015                              ""           
20201205121324051969600000000028400000002000001                                           
20201205121361980400000000005226600000012210001                              085459048    
20201205121311433300000000020910000000001000003                              ""           
20201205121381085900000000079230800000001000001                              Evento Teleto
20201205121361006500000000076691600000011246001                              085463011    
20201205121361750800000000070146500000001105006                              035230031    
20201205121311015400000000091741500000001000016                              ""           
20201205121311019200000000044021500000001000014                              ""           
20201205121311435900000000038052800000001470003                              ""           
20201205121311080700000000000443800000001500016                              ""           
20201205121311415300000000091007200000002400015                              ""           
20201205121361012000000000094586900000005060020                              0040741031   
20201205121361022000000000075488500000006200006                              035551067    
20201205121311015400000000091742000000001000016                              ""           
20201205121311467900000000001781300000001000014                              ""           
20201205121411026000000000042993800000003000001                              ""           
20201205121411047800000000003489500000000500030                                           
20201205121461467700000000000891500000002245011                              059339007    
20201205121411444600000000087580900000002000026                              ""           
20201205121411066200000000004354200000001000001                              ""           
20201205121461039500000000040400800000001590001                              085074043    
20201205121411467900000000001813200000001000014                              ""           
20201205121411415300000000091007700000000500015                              ""           
20201205121425051937000000000028500000020000001                                           
20201205121461030200000000095927600000004290011                              057470088    
20201205121411024600000000099119100000001000001                              ""           
20201205121411598500000000071650700000015000001                              ""           
20201205121471417900000000080995400000005220026                              004405084    
20201205121411010900000000059817200000004000010                              ""           
20201205121411050500000000023313800000000900015                              ""           
20201205121411415300000000091008200000001000015                              ""           
20201205121413066099900000095400500000200000001                              ""           
20201205121461022000000000075489000000001000006                              035553005    
20201205121461069800000000090075800000000960001                              085238086    
20201205121461094900000000029921800000001450013                              073800047    
20201205121461461500000000075443200000015000023                              007747071    
20201205121471417900000000080995900000000660026                              004424057    
20201205121411429800000000076950800000005000022                              ""           
20201205121411000900000000075958000000002000026                              ""           
20201205121411024600000000099119600000001000001                              ""           
20201205121411028600000000052772800000036000025                              ""           
20201205121461872200000000023812600000002000006                              035259082    
20201205121411446100000000011300600000002536015                              ""           
20201205121571417900000000080996400000000660026                              004427061    
20201205121511466900000000061866000000005000015                              ""           
20201205121511465300000000032483700000000500031                              ""           
20201205121511449500000000046034100000000200011                              ""           
20201205121511038500000000030852500000002000003                              ""           
20201205121511422600000000052841600000000500018                              ""           
20201205121511027000000000014273200000002000001                              ""           
20201205121511099100000000090916800000005000001                                           
20201205121511029100000000037628000000000120004                              ""           
20201205121511000900000000075958500000001000026                              ""           
20201205121561001200000000066254500000001305013                              073689067    
20201205121571417900000000080996900000006500026                              004496083    
20201205121511090900000000049950100000005000031                              ""           
20201205121511425700000000000567800000002000010                              ""           
20201205121511462900000000002207300000002000015                              ""           
20201205121511415300000000091008700000010000015                              ""           
20201205121511465000000000098678200000001000015                              ""           
20201205121511047800000000003490000000000500030                                           
20201205121511012900000000048843400000001550028                              ""           
20201205121561750800000000070147900000001080006                              036100025    
20201205121511449500000000046034600000000200011                              ""           
20201205121511023500000000080156800000000800031                              ""           
20201205121511079900000000058912500000007740015                              ""           
20201205121571417900000000080997400000010500026                              004358063    
20201205121514070359000000089968200000005000015                                           
20201205121511016600000000009943600000000500032                                           
20201205121561093500000000075335000000010000028                              021317039    
20201205121524051910600000000028600000050000001                                           
20201205121511034600000000068840500000025000001                              ""           
20201205121561467900000000001811800000012697014                              050152092    
20201205121511819200000000033667500000001115026                              ""           
20201205121511026000000000042994300000003500001                              ""           
20201205121514021699900000037086300000002000028                              LETICIA AVALO
20201205121514053499900000095355800000002500001                              MARGARITA HER
20201205121561039500000000040401300000001593001                              085073074    
20201205121511000900000000075959000000001500026                              ""           
20201205121511045500000000094799400000000500013                              ""           
20201205121511447700000000014539100000002000019                              ""           
20201205121624051911800000000028700000010000001                                           
20201205121611046400000000043555100000001000014                              ""           
20201205121611465000000000098678700000000500015                              ""           
20201205121611466900000000061866500000005000015                              ""           
20201205121611042700000000016967800000000200016                              ""           
20201205121611044900000000036843300000000200014                              ""           
20201205121661963900000000081122300000006360013                              073342081    
20201205121611052300000000013622000000002209015                              ""           
20201205121611016800000000096683900000001000016                              ""           
20201205121661034800000000014407800000026710019                              035277086    
20201205121611042700000000016968300000000300016                              ""           
20201205121661457700000000031824600000001400015                              498573822    
20201205121611016400000000091457900000000250011                              ""           
20201205121611004000000000033814600000001000022                              ""           
20201205121625051967600000000028800000000010001                                           
20201205121611443000000000016621700000005000015                                           
20201205121611045500000000094799900000000500013                              ""           
20201205121611075000000000080302300000003000001                              ""           
20201205121611010500000000056414300000003000001                              ""           
20201205121611036900000000088585500000001000001                              ""           
20201205121624051999900000000028900000002500001                                           
20201205121611055100000000053687900000002500006                              ""           
20201205121671417900000000080997900000010000026                              004360088    
20201205121611016800000000096684400000001000016                              ""           
20201205121611031300000000007287000000001000011                              ""           
20201205121611700300000000083272100000005000001                                           
20201205121661039500000000040401800000000490001                              085067076    
20201205121614021699900000037086800000002000028                              EVANGELINA AV
20201205121611418300000000086339500000000500001                              ""           
20201205121611089800000000019758500000002000032                              ""           
20201205121661457700000000031825100000002000015                              498573822    
20201205121711001300000000078279700000004000003                              ""           
20201205121711034400000000061088300000002000001                              ""           
20201205121711069800000000090076300000000200001                              ""           
20201205121714098699900000005569600000006120015                              VALERIA SARAY
20201205121771417900000000080998400000010000026                              004478079    
20201205121761093500000000075335500000001820028                              021315004    
20201205121711073500000000069589600000001230021                              ""           
20201205121711034800000000014408300000002000019                              ""           
20201205121725051907400000000029000000001000001                                           
20201205121761467700000000000892000000000925011                              059150080    
20201205121711015800000000080776000000001000025                              ""           
20201205121711817100000000038504200000002000021                              ""           
20201205121711026000000000042994800000001000001                              ""           
20201205121781085900000000079524200000003000001                              Evento Teleto
20201205121711489700000000042654000000002000002                              ""           
20201205121711052700000000043929000000000300015                              ""           
20201205121724051936000000000029100000012000001                                           
20201205121711010500000000056414800000001000001                              ""           
20201205121761448400000000057409600000001555006                              035520088    
20201205121711089000000000040860500000002000023                              ""           
20201205121761750800000000070148400000001145006                              035865039    
20201205121714021699900000037087300000001000028                              MARIA ELENA A
20201205121761039500000000040402300000000135001                              085069014    
20201205121711079800000000034604800000000250015                                           
20201205121711026800000000081733800000002000001                              ""           
20201205121711879200000000016160100000010000019                              ""           
20201205121711052300000000013622500000003000015                              ""           
20201205121725051997600000000029200000010000001                                           
20201205121711079800000000034605300000000250015                                           
20201205121761420000000000022499400000000265011                              059532081    
20201205121711015800000000080776500000000500025                              ""           
20201205121761036800000000058429300000001835016                              065881054    
20201205121761410100000000061025400000042970015                              092403031    
20201205121711021900000000091801900000000100030                              ""           
20201205121791523800000000085916800000001000001                              Evento Teleto
20201205121711006500000000076694000000001000001                              ""           
20201205121712098699900000005570100000002000015                                           
20201205121891087000000000015196100000002000001                              MARIA GUADALU
20201205121811025900000000006309700000001000001                              ""           
20201205121811010500000000056415300000000500001                              ""           
20201205121811093500000000075336000000002000028                              ""           
20201205121824051923000000000029300000002000001                                           
20201205121811040300000000030729800000002000015                              ""           
20201205121811079900000000058913000000002000015                              ""           
20201205121814066499600000000538700000000500014                                           
20201205121861467700000000000859600000002710011                              057679054    
20201205121811099000000000077868600000000920003                                           
20201205121811065200000000064944500000010000009                              ""           
20201205121811061700000000058677500000005000015                              ""           
20201205121814426699700000080453700000015000001                                           
20201205121811082400000000028761900000002000015                              ""           
20201205121871417900000000080998900000006400026                              004466073    
20201205121811061700000000058678000000002000015                              ""           
20201205121824051919100000000029400000005000001                                           
20201205121811066200000000004354700000001000001                              ""           
20201205121861434200000000082050200000031625001                              085425065    
20201205121811052800000000047362000000001000015                              ""           
20201205121811061700000000058678500000002000015                              ""           
20201205121814021699900000037087800000001000028                              JERONIMO RODR
20201205121811016100000000032363700000002500006                              ""           
20201205121811488200000000005624600000001500025                              ""           
20201205121811099000000000077869100000000500003                                           
20201205121825051923500000000029500000005000001                                           
20201205121811467900000000001803800000000500014                              ""           
20201205121824051983800000000029600000010000001                                           
20201205121811079800000000034605800000000500015                                           
20201205121861039500000000040399000000000920001                              085068045    
20201205121811067700000000066496900000001000016                              ""           
20201205121811097600000000064720700000005000015                              ""           
20201205121861462900000000002222200000010385015                              094124070    
20201205121811093500000000075336500000000500028                              ""           
20201205121811050200000000014858300000006000015                              ""           
20201205121811061700000000058679000000003000015                              ""           
20201205121811027000000000014273700000005000001                              ""           
20201205121824051999700000000029700000010000001                                           
20201205121811093700000000045540400000000100005                              ""           
20201205121811013100000000018575300000002000015                              ""           
20201205121911050500000000023314300000001000015                              ""           
20201205121914026699900000072584600000010000001                              RFC MATD69021
20201205121911079800000000034606300000001000015                                           
20201205121911052800000000047362500000001000015                              ""           
20201205121911434900000000077419400000000200015                              ""           
20201205121911052700000000043929500000001000015                              ""           
20201205121911467900000000001813700000000500014                              ""           
20201205121914021699900000037088300000001000028                              JULIETA RODRI
20201205121911656100000000039151400000002000015                              ""           
20201205121961750800000000070135100000001190006                              035663050    
20201205121911021200000000061124200000002500001                              ""           
20201205121961980400000000005224700000003000001                              089618073    
20201205121911093700000000045542300000000070005                              ""           
20201205121911467900000000001814200000001200014                              ""           
20201205121911021300000000048039600000003000030                              ""           
20201205121961094900000000029922300000001730013                              073796011    
20201205121911497700000000094608100000000500001                              ""           
20201205121911010500000000056415800000000500001                              ""           
20201205121911903300000000039856200000030000031                              ""           
20201205121961009800000000052829900000006040006                              025748044    
20201205121911010700000000065342200000000500017                              ""           
20201205121961467700000000000866600000002400011                              057539096    
20201205121911053400000000095356300000001000001                              ""           
20201205121961039500000000040398400000002820001                              085071039    
20201205121912008399900000003764200000001000006                                           
20201205121914488207500000005625100000006000025                                           
20201205121924051911400000000029800000002000001                                           
20201205121911471900000000036746500000005000015                              ""           
20201205121961467700000000000882600000002105011                              059191030    
20201205121961022000000000075489500000004320006                              035548073    
20201205121924051929600000000029900000010000001                                           
20201205122014434649100000055826800000005000001                                           
20201205122081085900000000079731400000001000001                              Evento Teleto
20201205122024051913900000000030000000001000001                                           
20201205122061448400000000057410100000002240006                              035526096    
20201205122011045500000000094800400000000500013                              ""           
20201205122011460300000000028209800000001000015                              ""           
20201205122011597500000000081496400000000200016                              ""           
20201205122061486200000000058567200000023850001                              092542020    
20201205122041051900000000009843100000032000001                              KARLA PATRICI
20201205122061436300000000050713700000017177015                              092539026    
20201205122061464900000000042032000000000500015                              498573822    
20201205122011093800000000096143000000001500030                              ""           
20201205122011066200000000004355200000002500001                              ""           
20201205122011036800000000058429800000000120016                              ""           
20201205122011025900000000006310200000000500001                              ""           
20201205122011089400000000066425700000001000025                                           
20201205122011052800000000047363000000001000015                              ""           
20201205122061903100000000000325200000006000012                              081504013    
20201205122061015600000000040534400000002110010                              025386082    
20201205122061039500000000040402800000000305001                              085065041    
20201205122011408700000000086458500000001000001                              ""           
20201205122061750800000000070148900000001520006                              035735052    
20201205122011980400000000005216200000001500001                              ""           
20201205122011050500000000023314800000001000015                              ""           
20201205122061467900000000001794800000012400014                              049309014    
20201205122081085900000000079773600000010000001                              Evento Teleto
20201205122011013300000000005667700000000600018                                           
20201205122024051959400000000030100000003000001                                           
20201205122011090900000000049950600000002000031                              ""           
20201205122061467700000000000891600000001350011                              057716007    
20201205122061883100000000025753600000007540008                              039599015    
20201205122014085999900000079783400000003000001                              DONACION     
20201205122025051980200000000030200000001000001                                           
20201205122011011800000000061244700000001000016                              ""           
20201205122061903100000000000328200000006000012                              081502075    
20201205122061467900000000001814700000010200014                              049567050    
20201205122011061100000000066447000000001070030                              ""           
20201205122071746500000000031235100000000200021                                           
20201205122011465600000000067202700000002000030                              ""           
20201205122011798800000000048260300000010000001                              ""           
20201205122011023100000000052577000000000300027                              ""           
20201205122014085999900000079800500000002000001                              DANATIVO     
20201205122061467700000000000892500000003000011                              057614092    
20201205122081085900000000079802800000001000001                              Evento Teleto
20201205122111013300000000005668200000000500018                                           
20201205122111060900000000073994500000002000021                              ""           
20201205122111051400000000098919600000000500001                              ""           
20201205122161872200000000023813100000004200006                              035260041    
20201205122111446300000000032904200000010000015                                           
20201205122161903100000000000329100000006000012                              081500040    
20201205122113083099900000076216400000050000009                              ""           
20201205122161039500000000040403300000002790001                              085072008    
20201205122161026200000000087892600000007930011                              058715019    
20201205122161001200000000066255500000005681013                              073687032    
20201205122181085900000000079831100000005000001                              51220        
20201205122111027400000000070539100000010000014                              ""           
20201205122161961000000000011023600000036670031                              013466075    
20201205122111039000000000034092300000002000003                              MARCOS BAUTIS
20201205122111959600000000066636100000001000025                                           
20201205122111446100000000011301100000013500015                              ""           
20201205122111486200000000058567700000002000001                              ""           
20201205122161462900000000002209300000010122015                              092637065    
20201205122111051400000000098920100000000500001                              ""           
20201205122161903100000000000323400000003000012                              081503044    
20201205122111024600000000099120100000005000001                              ""           
20201205122111055200000000098393200000000100008                              ""           
20201205122161045800000000013128200000010000015                              NORMA GONZALE
20201205122161818800000000020021900000012760015                              092382047    
20201205122111051400000000098920600000000500001                              ""           
20201205122111427400000000080172400000005000015                              ""           
20201205122114014799900000042979400000003000022                              MA PUEBLLITO 
20201205122161903100000000000329600000003000012                              081501009    
20201205122111039000000000034092800000005540003                              ""           
20201205122111001400000000034180400000005200014                              ""           
20201205122111060900000000073995000000002000021                              ""           
20201205122111051500000000096770000000002000001                              ""           
20201205122211053100000000070198100000010000015                              ""           
20201205122211713100000000041696800000001000014                              ""           
20201205122261039500000000040403800000000945001                              085066010    
20201205122271417900000000080997500000010500026                              004495017    
20201205122211097600000000064721200000001000015                              ""           
20201205122211024600000000099112700000002000001                              ""           
20201205122211713100000000041697300000001000014                              ""           
20201205122261434200000000082050700000011582001                              085424096    
20201205122211016300000000004794200000000100032                              498573822    
20201205122261093700000000045542800000000545005                              013108062    
20201205122212440999900000047040800000050000015                                           
20201205122211039000000000034093300000000150003                              ""           
20201205122211025300000000050277600000002500014                              ""           
20201205122211010700000000065342700000003000017                              ""           
20201205122214048759500000099601600000050000013                                           
20201205122211408900000000033180600000002000015                              ""           
20201205122211597500000000081496900000000300016                              ""           
20201205122211032900000000024422700000001000001                              ""           
20201205122211023500000000080157300000001000031                              ""           
20201205122211020100000000055415700000005000014                              ""           
20201205122211031600000000013846000000000500025                              ""           
20201205122224051929500000000030300000015000001                                           
20201205122211054600000000052293400000001000030                              ""           
20201205122261093500000000075337000000001330028                              021314035    
20201205122211024600000000099119200000010000001                              ""           
20201205122211060900000000073995500000002000021                              ""           
20201205122211089400000000066426200000000200025                                           
20201205122211460300000000028210300000002000015                              ""           
20201205122214085999900000079961100000000500001                              donativo     
20201205122211033100000000017302100000002000030                              ""           
20201205122325051927600000000030400000001000001                                           
20201205122311071800000000082475700000001000001                              ""           
20201205122311051500000000096768100000005000001                              ""           
20201205122311016400000000091458400000001000011                              ""           
20201205122361420000000000022499900000004575011                              059546025    
20201205122311960400000000078713500000002000014                              ""           
20201205122311032900000000024423200000003000001                              ""           
20201205122361061700000000058679500000002185015                              092630088    
20201205122311056100000000006640800000073000011                              ""           
20201205122311085300000000070383800000002000013                              ""           
20201205122311039500000000040404300000005000001                              ""           
20201205122311020100000000055416200000001000014                              ""           
20201205122361462900000000002222700000021836015                              092516080    
20201205122361448400000000057410600000003300006                              035522026    
20201205122311053200000000020370200000010000001                              ""           
20201205122311446100000000011301600000002760015                              ""           
20201205122311051400000000098921100000000500001                              ""           
20201205122311032900000000024423700000005000001                              ""           
20201205122311014600000000058566700000002000028                              ""           
20201205122311051500000000096770500000005000001                              ""           
20201205122341051900000000009993700000027500001                              KARLA PATRICI
20201205122311085300000000070387700000002000013                              ""           
20201205122311054600000000052293900000000500030                              ""           
20201205122311010400000000022511100000001000011                              ""           
20201205122311026700000000048868400000001500016                              ""           
20201205122311001300000000078280200000010000003                              ""           
20201205122371411800000000038421100000000890015                              2643951376   
20201205122311445400000000008447100000000500029                              ""           
20201205122311048200000000073391900000012000015                              ""           
20201205122311024600000000099120600000000500001                              ""           
20201205122371011700000000052320400000002000019                                           
20201205122311031900000000000423400000002000016                              ""           
20201205122411005300000000074279900000005000021                              ""           
20201205122461001200000000066256000000005395013                              073688098    
20201205122411044700000000003178200000005485016                              ""           
20201205122471018400000000022434800000003000021                                           
20201205122411053200000000020370700000002000001                              ""           
20201205122411447800000000092216700000001000028                              ""           
20201205122414085999900000080058400000000535101                              DONACION PARA
20201205122411042800000000010297800000001000016                              ""           
20201205122424051964300000000030500000003000001                                           
20201205122411462900000000002223200000001655015                              ""           
20201205122411437500000000028206900000004000013                              ""           
20201205122411489700000000042654500000001000002                              ""           
20201205122411012200000000039618800000005000013                              ""           
20201205122411047800000000003490500000001000030                                           
20201205122411009800000000052827000000010000006                              ""           
20201205122461464900000000042032500000000500015                              498573822    
20201205122411022800000000096380300000001000021                              ""           
20201205122411654700000000015352500000000500015                              ""           
20201205122461467700000000000893000000002505011                              057567071    
20201205122411017600000000013013300000002000012                              ""           
20201205122411028400000000079067700000000500003                              ""           
20201205122491523800000000085955800000002000001                              Evento Teleto
20201205122411004000000000033815100000010000022                              ""           
20201205122461467700000000000860600000002585011                              059136049    
20201205122461021600000000037088800000001658028                              021119023    
20201205122411017000000000081855400000002000025                              ""           
20201205122411462900000000002223700000004000015                              ""           
20201205122411042400000000052774400000001000014                              ""           
20201205122471417900000000080999400000006200026                              004498021    
20201205122411819900000000049957600000002000011                              ""           
20201205122461750800000000070149400000001180006                              035734083    
20201205122411049100000000096251500000010000001                              ""           
20201205122511442700000000066511500000000200015                              ""           
20201205122511017200000000006831800000007000009                              ""           
20201205122511444000000000007998400000000500015                              ""           
20201205122511016200000000063929100000001000013                              ""           
20201205122524051929500000000030600000003000001                                           
20201205122511068100000000020616600000000800001                              ""           
20201205122514434629800000055824900000005000001                                           
20201205122511660900000000094436800000006000019                              N/A          
20201205122561022000000000075490000000004060006                              035555040    
20201205122561094900000000029922800000001340013                              073795042    
20201205122511098500000000080118500000012837013                              ""           
20201205122511015800000000080777000000000400025                              ""           
20201205122511460300000000028210800000002000015                              ""           
20201205122511442800000000069002100000002000015                              ""           
20201205122514747099700000016797100000002000013                                           
20201205122581085900000000080165400000000200001                              Evento Teleto
20201205122511072800000000065803600000002000007                              ""           
20201205122511468600000000047772100000005000001                              ""           
20201205122511713100000000041697800000005000014                              ""           
20201205122511075400000000027823100000005000011                              ""           
20201205122514014199900000019046600000002000001                                           
20201205122525051946900000000030700000050000001                                           
20201205122511442800000000069002600000002000015                              ""           
20201205122561467700000000000861100000018195011                              059240086    
20201205122511050500000000023315300000010000015                              ""           
20201205122561750800000000070149900000001185006                              036218016    
20201205122611446400000000064352900000007000013                              ""           
20201205122612427299900000097792800000001000001                              ""           
20201205122611442700000000066512000000001000015                              ""           
20201205122661471900000000036747000000011215015                              092608024    
20201205122691087000000000015708800000001500001                              JOSE JACOBO M
20201205122611037100000000046198800000020000015                              ""           
20201205122661017700000000070201200000002013030                              045421063    
20201205122625051902900000000030800000002000001                                           
20201205122625051901900000000030900000000500001                                           
20201205122611013800000000080659000000003000026                              ""           
20201205122611043300000000033645200000002000014                              ""           
20201205122612453999900000000651700000001000001                                           
20201205122611045900000000009477400000002000016                              ""           
20201205122611015800000000080777500000000300025                              ""           
20201205122611061700000000058680000000000500015                              ""           
20201205122661420000000000022500400000000520011                              059531015    
20201205122611033600000000014571100000001000011                              ""           
20201205122611033600000000014571600000001000011                              ""           
20201205122661448400000000057411100000002112006                              035524061    
20201205122612427299900000097793300000001000001                              ""           
20201205122691051900000000010131000000005000001                              MANUEL LOZOYA
20201205122611660900000000094437300000003000019                              N/A          
20201205122611015800000000080778000000000300025                              ""           
20201205122611038500000000030853000000003375003                              ""           
20201205122661021600000000037089300000001335028                              021113015    
20201205122661975000000000046118400000002105001                              1361501376   
20201205122612008399900000003772100000020000006                                           
20201205122611434600000000055827300000005000001                              ""           
20201205122611446400000000064353400000000500013                              ""           
20201205122611016200000000063929600000001000013                              ""           
20201205122681085900000000080257800000002000001                              Evento Teleto
20201205122661069100000000020205900000017410024                              0076946053   
20201205122614085999900000080263700000000044401                              apoyo teleton
20201205122611084600000000034369000000010000015                              ""           
20201205122611014500000000065221800000005200005                              ""           
20201205122611038500000000030853500000000700003                              ""           
20201205122611050500000000023315800000001000015                              ""           
20201205122611462900000000002224200000002000015                              ""           
20201205122714444649700000087581400000005000026                                           
20201205122711809300000000026145600000001000001                              ""           
20201205122711016900000000031300000000000300030                                           
20201205122714000989200000075959500000001000026                                           
20201205122725051900000000000031000000050000001                                           
20201205122771060400000000033319300000001838030                              3021321352   
20201205122711599600000000095009500000000500015                                           
20201205122725051972000000000031100000005000001                                           
20201205122712427299900000097793800000001000001                              ""           
20201205122724051939700000000031200000001000001                                           
20201205122712427299900000097794300000001000001                              ""           
20201205122711091800000000032528000000001000015                              ""           
20201205122761054700000000077062600000000570022                              077384021    
20201205122725051951900000000031300000001500001                                           
20201205122761467900000000001794400000001580014                              050248009    
20201205122761095300000000091041500000026845016                              077090088    
20201205122711599600000000095008200000001000015                                           
20201205122711438200000000063559200000000500027                              ""           
20201205122711010200000000038147300000003000002                              ""           
20201205122712427299900000097794800000001000001                              ""           
20201205122711014500000000065222200000000100005                              ""           
20201205122771018400000000022435300000002000021                                           
20201205122711442700000000066511100000000900015                              ""           
20201205122711057300000000005087100000008000015                              ""           
20201205122711053600000000022100900000000250015                              ""           
20201205122761026900000000063092600000000230001                              089551003    
20201205122714750469000000073691300000040000015                                           
20201205122812427299900000097795300000001000001                              ""           
20201205122891523800000000085976800000000500001                              Evento Teleto
20201205122811043400000000040823500000000500016                              ""           
20201205122814013889500000080659500000001500026                                           
20201205122861750800000000070148000000000970006                              035732048    
20201205122811015800000000080778500000001000025                              ""           
20201205122811032900000000024424200000000500001                              ""           
20201205122812427299900000097795800000001000001                              ""           
20201205122861001200000000066256500000007760013                              073690026    
20201205122811467900000000001815200000002000014                              ""           
20201205122881085900000000080375900000001000001                              Evento Teleto
20201205122824051906600000000031400000010000001                                           
20201205122811034600000000068841000000001000001                              EIDM641212H72
20201205122811467900000000001788900000000500014                              ""           
20201205122824051953200000000031500000005000001                                           
20201205122811024600000000099121100000005000001                              ""           
20201205122811098500000000080119000000001000013                              ""           
20201205122811016900000000031300500000002000030                                           
20201205122881085900000000080386600000001000001                              Evento Teleto
20201205122811465300000000032484200000001000031                              ""           
20201205122811070800000000080413700000001000014                              ""           
20201205122861430900000000000087400000000820012                              079936025    
20201205122811818500000000008871800000000200015                              ""           
20201205122861065800000000044907700000011755002                              050756024    
20201205122824051989400000000031600000001000001                                           
20201205122811026800000000081734300000025000001                              ""           
20201205122811042800000000010298300000004000016                              ""           
20201205122861744200000000016284900000005070023                              7391010      
20201205122811467900000000001815700000000200014                              ""           
20201205122811033300000000008375600000005000001                              ""           
20201205122811442700000000066512500000000510015                              ""           
20201205122861042400000000052778200000005525014                              049522030    
20201205122811016900000000031301000000003000030                                           
20201205122811030200000000095915700000001000011                              ""           
20201205122811467900000000001816200000000200014                              ""           
20201205122824051989100000000031700000001000001                                           
20201205122811027400000000070539600000003000014                              ""           
20201205122811032900000000024424700000001000001                              ""           
20201205122811053600000000022101400000000250015                              ""           
20201205122881085900000000080414700000000500001                              Evento Teleto
20201205122861080700000000000444800000006820016                              2689281365   
20201205122811411800000000038430500000001000015                              ""           
20201205122811467900000000001796800000000200014                              ""           
20201205122811430800000000070103700000005000014                              ""           
20201205122825051930500000000031800000002000001                                           
20201205122861744200000000016297700000010200023                              7537049      
20201205122811026800000000081734800000001000001                              ""           
20201205122811817100000000038504700000001000021                              ""           
20201205122861022000000000075490500000001715006                              035545069    
20201205122911003800000000047890100000005000022                              ""           
20201205122961014600000000058567200000001455028                              022045064    
20201205122911959600000000066636600000000190025                                           
20201205122981085900000000080433200000000300001                              Evento Teleto
20201205122911033300000000008369700000005000001                              ""           
20201205122911818500000000008872300000000200015                              ""           
20201205122911038500000000030854000000100000003                              ""           
20201205122911460300000000028211300000001000015                              ""           
20201205122961744200000000016298200000010120023                              7456045      
20201205122914085999900000080448800000036000001                              TELETON 2020 
20201205122911095300000000091042000000003000016                              ""           
20201205122925051927000000000031900000005000001                                           
20201205122961021300000000048040100000003007030                              043515080    
20201205122961009800000000052830400000002850006                              025656003    
20201205122911442700000000066513000000000600015                              ""           
20201205122911440900000000047041300000002000015                                           
20201205122911020500000000024849300000001000001                              ""           
20201205122924051939800000000032000000010000001                                           
20201205122911032900000000024425200000002000001                              ""           
20201205122961744200000000016298700000000770023                              7480047      
20201205122911022400000000076506400000005000001                              ""           
20201205122911799800000000089871000000001000030                              ""           
20201205122925051926700000000032100000000200001                                           
20201205122911034800000000014408800000003000019                              ""           
20201205122971417900000000080999900000002200026                              004410016    
20201205122911026800000000081735300000000300001                              ""           
20201205122911799800000000089871900000001000030                              ""           
20201205122911028900000000023005600000001000022                              ""           
20201205122961462900000000002224700000005135015                              099913045    
20201205122911451800000000059344000000004000001                              ""           
20201205122911003800000000047890600000000500022                              ""           
20201205122911028000000000035216700000002200027                              ""           
20201205122961744200000000016299200000001475023                              7339033      
20201205122961043500000000053650600000003330016                              065770040    
20201205122971417900000000081000400000002700026                              004438098    
20201205122925051986300000000032200000005000001                                           
20201205122925051984300000000032300000002000001                                           
20201205123011024300000000024116800000001000015                              ""           
20201205123024051919700000000032400000003000001                                           
20201205123061467700000000000893500000004115011                              059133045    
20201205123061021600000000037088400000006075028                              021092031    
20201205123061450300000000041146800000019005013                              073366093    
20201205123011095300000000091042500000000200016                              ""           
20201205123061744200000000016299700000002150023                              8345012      
20201205123081085900000000080520300000001000001                              Evento Teleto
20201205123011443000000000016620800000001000015                                           
20201205123061014600000000058567700000000320028                              022049037    
20201205123024051999100000000032500000002500001                                           
